:020000040000fa
:080000000001040000000000f3
:020000040000fa
:100008009a0100009a0100009a0100009a0100007c
:100018009a0100009a0100009a0100009a0100006c
:100028009a0100009a0100009a0100009a0100005c
:100038009a0100009a0100009a0100009a0100004c
:100048009a0100009a0100009a0100009a0100003c
:100058009a0100009a0100009a0100009a0100002c
:10006800ba0e00009a0100009a0100009a010000ef
:100078009a0100009a0100009a0100009a0100000c
:100088009a0100009a0100009a0100005a08000035
:100098009a0100009a0100009a0100009a010000ec
:1000a8009a0100009a0100009a0100009a010000dc
:1000b800120f00009a0100009a0100009a01000046
:1000c8009a0100009a0100009a0100009a010000bc
:1000d8009a0100009a0100009a0100009a010000ac
:1000e8009a0100009a0100009a0100009a0100009c
:0800f8009a0100009a010000ca
:020000040000fa
:100108009a0100009a0100009a0100009a0100007b
:100118009a0100009a0100009a0100009a0100006b
:100128009a0100009a0100009a0100009a0100005b
:100138009a0100009a0100009a0100009a0100004b
:100148009a0100009a0100009a0100009a0100003b
:100158009a0100009a0100009a0100009a0100002b
:10016800ba0e00009a0100009a0100009a010000ee
:100178009a0100009a0100009a0100009a0100000b
:100188009a0100009a0100009a0100005a08000034
:100198009a0100009a0100009a0100009a010000eb
:1001a8009a0100009a0100009a0100009a010000db
:1001b800120f00009a0100009a0100009a01000045
:1001c8009a0100009a0100009a0100009a010000bb
:1001d8009a0100009a0100009a0100009a010000ab
:1001e8009a0100009a0100009a0100009a0100009b
:0801f8009a0100009a010000c9
:020000040000fa
:100200000fa920000e7f22000e01880000000000d0
:10021000000020000000e000020032000001200089
:10022000200288000c000700600b22000100200063
:1002300011000700000020000000e0000200320072
:10024000000002000000000016090200000000008b
:100250000040da000000fe004440a9000002200037
:100260000000e0000300320000002000a001880030
:100270004440a8000000060091018800800078003a
:100280000000eb0015003700e280400032a0b4000f
:100290009101ba00e280400032a0b4009102ba009d
:1002a000e280400032a0b4000002eb00472bde00e9
:1002b000f507b200602ce10004003a000059eb00a1
:1002c0008301e900fdff3e00040037006128e100e2
:1002d000010032000082eb00040007001101ba00a7
:1002e0000200e000e8ff3a00000006003159ba00c1
:1002f0008301e9000c0032002159ba008301e900b2
:10030000080032000400e00003003a00e2804000f0
:1003100032a0b400f5ff370011d9ba008301e9001b
:10032000faff3a008100e800e180400032a0b4000a
:10033000000006000040da000000fe006022b80065
:10034000060220000000d0008180d2000482d2008a
:100350008582d2000000a0000202520083825a006f
:10036000030031000202420083824a000000a10023
:0c0370000603e900f3ff3a00000006005d
:020000040000fa
:10037c000000000000800000000000000080000071
:10038c000000000000800000000000000080000061
:10039c000000000000800000000000000080000051
:1003ac000000000000800000000000000080000041
:020000040000fa
:1003bc002000fa00e41b28000f000900341f78000d
:1003cc000e02b1000080fa00000006000000fa00e6
:1003dc002e000700d7010700c00007001c00070013
:1003ec00044e8000d44a8800d54a8000d44d800049
:1003fc0004824200d44a8800d54a8000e44d800033
:10040c0004824200d44a8800d54a8000f44d800012
:10041c0004824200d44a8800d54a8000b44d800042
:10042c0004824200d44a8800d54a8000a44d800042
:10043c0004824200d44a8800d54a8000944d800042
:10044c0004824200d44a88000080fa0000000600b2
:10045c000000fa00250480000408200004826200d9
:10046c00e00f52000700320084e0a900044e800027
:10047c000402e800044e8800044e800024548800d6
:10048c008629a8000080fa00000006000a00fa0085
:10049c002c0037008e007800008020004e0e0700e4
:1004ac009e0278008407200004826200f00f520044
:1004bc0004003200b44d80000402e800b44d880002
:1004cc00200037009e02780004492100848f5200de
:1004dc0003003a000e0078008f0007001900370067
:1004ec009e02780004592100848f520003003a00c8
:1004fc000e0078003f000700120037009e027800c3
:10050c0004612100848f520003003a000e00780031
:10051c00bb0007000b0037009e027800c4c7210007
:10052c008482620004012100848f520005003a008d
:10053c000e0078002f000700944d80000402e800a4
:10054c00944d880000802000d50d07000002780033
:10055c00e00f5200cfff3a0074458000d44d880064
:10056c0034408000e44d88000080fa000000060052
:10057c000400fa00000f7800110798001e027800a2
:10058c00940278001e0290000403780005037300a7
:10059c00860278001e027800050a78000080fa00b6
:1005ac00000006000400fa00000f78001107980004
:1005bc001e027800940278001e0290000482ea0069
:1005cc00848262001e027800050a78000080fa001e
:1005dc00000006000400fa00000f780011079800d4
:1005ec001e0290001e026200040078000080fa00d7
:1005fc00000006000400fa00100798001e0290008c
:10060c00c4029000050f780004002f009e026200c7
:10061c0004002200848f520004003200a44d80009c
:10062c000402e800a44d88002a003700f4ff2000e3
:10063c009e026200f40f2000848f520004003e00e2
:10064c00a44d80000402e800a44d8800210037006e
:10065c00f4ff20009e026200f42f2000848f5200d1
:10066c0003003e001e009000190e07001900370011
:10067c00f4ff20009e026200f43f2000848f5200a1
:10068c0004003e00a44d80000402e800a44d880044
:10069c0010003700f4ff20009e026200f4ef2000ef
:1006ac00848f520008003600f4ff20009e02620086
:1006bc00f4f72000848f520003003e001e009000cf
:1006cc008f00070003003700a44d80000402e800ef
:1006dc00a44d88000080fa00000006000000fa001b
:1006ec00544e8000e00f520005003a00344c80005c
:1006fc0061026200e00f520001003200a800070006
:10070c00344c8000614262000482fb00544e88002d
:10071c000080fa00000006000400fa0010079800a0
:10072c001e029000c4029000050f780004002f00f8
:10073c009e02620004002200848f520004003200ea
:10074c00a44d80000402e800a44d8800130037007b
:10075c00f4ff20009e026200f4072000848f5200f8
:10076c0003003e001e0090000e0007000b00370037
:10077c00f4ff20009e026200f40f2000848f5200d0
:10078c0003003e001e009000db0d07000300370045
:10079c00a44d80000402e800a44d88000080fa00fb
:1007ac00000006000400fa00100798001e029000da
:1007bc00c4029000050f7800f4ff20001e0f6200a9
:1007cc001e027800e10f520003003200e30f5200ca
:1007dc0003003200040037000000fe000600370062
:1007ec00f3fe070004003700a44d80000402e8006b
:1007fc00a44d8800000000000080fa0000000600f4
:10080c000600fa00200798002e029000c402900007
:10081c00050f78002e0290008002eb001502980064
:10082c002e0290008002eb00250298002e02900010
:10083c008002eb003502980004002f009e0262003b
:10084c0004002200848f520004003200a44d80006a
:10085c000402e800a44d8800270037002e02900007
:10086c00c4029000f4ff2000048262001407980078
:10087c009e029000f41f2000848f52000700360067
:10088c009e029000f42f2000848f520003003e0043
:10089c002e009000a20d07000f0037009e02900062
:1008ac00f4ef2000848f5200070036009e02900067
:1008bc00f4f72000848f520003003e002e009000bd
:1008cc002500070004003700a44d80000402e80056
:1008dc00a44d880008003700ae009000808a2000ec
:1008ec00250d0700741b800068026200e00f5200a7
:1008fc0001003a008760a8000080fa0000000600a2
:10090c000800fa00300798003e029000c4029000e4
:10091c00f40f2000048f62003e02900094029000bd
:10092c00150798003e029000a4029000250798003d
:10093c00be009000808a20000f0d0700741b800001
:10094c0068026200e00f520001003a008760a800c4
:10095c000080fa00000006000800fa00300798003a
:10096c003e029000c4029000f40f2000048f62003d
:10097c000002eb00140798000002eb00240798001b
:10098c003e0290009e029000150298003e029000dc
:10099c00ae029000250298000080fa0000000600cc
:1009ac000a00fa0044812a00040f780064982000a1
:1009bc001402780014079800849820001402780020
:1009cc0024079800040a2a0034079800040b2b0013
:1009dc0044079800e13520000e0078002d0d07002b
:1009ec00344d80000402e800344d88000080fa0089
:1009fc00000006000200fa00000f7800249c200082
:100a0c009e02780095029000050a78001e0278007c
:100a1c00a4029000249c2000150298001e0278006d
:100a2c00b4029000249c2000250298001e0278003d
:100a3c00c4029000249c2000350298000060fe0047
:100a4c008629a9000002eb00540888000080fa00f7
:100a5c00000006001400fa00500798006107980087
:100a6c0072079800030f9800140f98005e02900014
:100a7c006f02620054079800de029000040220000e
:100a8c0005027200540798005e02900004024200b6
:100a9c0054079800de0290000460200005027200ea
:100aac00540798005e0290004222dd005407980023
:100abc005e029000040f78009e02780004f02f0074
:100acc0004826200040f78001e0278004322dd00cd
:100adc00040f78009e0278005e039000f40f200053
:100aec000402630005027200040f78001e0a9000d5
:100afc00140798000e0a9000240798007e029000bc
:100b0c00340798006e029000440798008e0078001d
:100b1c00808a2000980c0700741b80006802620019
:100b2c00e00f520001003a008760a8000080fa0034
:100b3c00000006000000fa002504800004042000d8
:100b4c0004826200e00f52009f00320084c0a900b2
:100b5c00644e80000402e800644e8800644e8000fd
:100b6c006f026200644e88008dff0700644e8000a7
:100b7c0005002000f600200007002000860f520020
:100b8c00878f5a0090003e00046001000f00370070
:100b9c0018003700200037002900370032003700da
:100bac003b003700440037004d003700560037003b
:100bbc005f00370068003700710037007a0037009b
:100bcc007b0037007c0037007d003700e44a800052
:100bdc00d74a8000c64a8000b54a80008701780059
:100bec0006017800850078000000eb0099ff0700f3
:100bfc0075003700064b8000f54a80000002eb00c0
:100c0c008001eb00060178008500780010002000c0
:100c1c0090ff07006c003700644b8000574b80003e
:100c2c00464b8000354b8000870178000601780028
:100c3c00850078002000200086ff07006200370046
:100c4c00a44b8000974b8000864b8000754b800036
:100c5c0087017800060178008500780030002000bc
:100c6c007cff070058003700e44b8000d74b800016
:100c7c00c64b8000b54b80008701780006017800d8
:100c8c00850078004000200072ff07004e003700fe
:100c9c00244c8000174c8000064c8000f54b8000e3
:100cac00870178000601780085007800500020004c
:100cbc0068ff070044003700444d8000374d80002a
:100ccc00264d8000154d80008701780006017800c4
:100cdc0085007800800020005eff07003a00370096
:100cec00844d8000774d8000664d8000554d80000e
:100cfc0087017800060178008500780090002000bc
:100d0c0054ff070030003700c44d8000b74d800001
:100d1c00a64d8000954d8000870178000601780073
:100d2c0085007800a00020004aff0700260037004d
:100d3c00044e8000f74d8000e64d8000d54d8000bc
:100d4c00870178000601780085007800b00020004b
:100d5c0040ff07001c003700c44c8000b74c8000db
:100d6c00a64c8000954c8000870178000601780025
:100d7c00850078006000200036ff07001200370065
:100d8c00044d8000f74c8000e64c8000d54c800070
:100d9c00870178000601780085007800700020003b
:100dac002cff0700080037006e0c07000600370008
:100dbc007b0c070004003700840c0700020037008e
:100dcc00940c0700000000000080fa0000000600f0
:100ddc000e00fa0050079800610798000002eb0023
:100dec00040f78006e029000240798005e029000b9
:100dfc0014079800e13420000e007800250c070041
:100e0c00444d80000402e800444d88000080fa0044
:100e1c00000006001000fa005007980061079800c7
:100e2c007207980044012a00040f78007e0290009b
:100e3c00140798005e029000240798006e02900040
:100e4c00e10f520003003a0004102e0044079800f2
:100e5c000200370014102e0044079800e1342000e3
:100e6c000e0078000b0c0700444d80000402e800d3
:100e7c00444d88000080fa00000006000000fa00d3
:100e8c00043a800061026200e00f520004003a0054
:100e9c00043a800062026200e00f5200050032004a
:100eac000002eb00145488000002eb00245488006c
:100ebc0003003700145480000402e8001454880026
:100ecc00249c20008002eb00050a7800249c200062
:100edc001500200015029800249c200025002000fd
:100eec0025029800249c2000350020003502980033
:100efc004007a9004027a90040c7a90040e7a90066
:100f0c0041e7a9004087a90041c7a90014548000fb
:100f1c00f44a880024548000044e88008f60a90095
:100f2c008760a9000405800004c0a10004d0a100c2
:100f3c0004e0a000040588000002eb00b41c88004b
:100f4c009803a8009823a8009843a80098a3a80089
:100f5c0000802000d90b0700808a2000d70b0700e7
:100f6c0004402000841c880000000000851c8000c8
:100f7c00040e20008482620004082000848f52003a
:100f8c00faff3a0014002000941c88001439200049
:100f9c00a41c88001480210084198800d4872100a7
:100fac00c41988000002eb0004188800048020009b
:100fbc00441888000401210084188800c47f210093
:100fcc00c4188800c47f210004198800c47f210044
:100fdc004419880014002000741b88002400200091
:100fec00f41a880034002000741a8800040c2000c5
:100ffc00241b8800040c2000a41a8800040c200078
:10100c00241a88000002eb00741c88000002eb001c
:10101c00f41b88000002eb00841c88000000000018
:10102c00851c8000040e200004826200e00f520038
:10103c00fbff3a008f60a80054fb25008408880051
:10104c0024f42000640888000002eb0034088800b7
:10105c0084c0a9008cc0a90011e1a800d4fb250014
:10106c0094088800546222007408880084e0a90067
:10107c008ce0a90013e1a8000002eb00944c88005e
:10108c0064ee2800a44c88000002eb00b44c8800ed
:10109c0014042000c44c880044062000d44c880062
:1010ac000080fa00000006003600f800809fbe00a9
:1010bc00829fbe00849fbe00869fbe000a00fa007d
:1010cc008760a900844d80000402e800844d8800ec
:1010dc00751c80000408200004826200e00f52009e
:1010ec0018003200741c800061026200e00f520094
:1010fc000b003a00544d80000402e800544d880067
:10110c00e13820000e007800070b07003e0290002b
:10111c00844a88004e029000944a880008003700e8
:10112c00644d80000402e800644d8800e138200022
:10113c000e007800fc0a07000e0078002dfe070058
:10114c009603a900f51b80000408200004826200ad
:10115c00e00f520007003200744d80000402e800da
:10116c00744d8800e137200000802000d10a070070
:10117c009623a900741b800068026200e00f5200e5
:10118c000c003a00808a2000c50a07000002780093
:10119c00e00f520007003200e1362000808a200068
:1011ac00260b07009643a900c44d80000402e800fa
:1011bc00c44d8800b51c800004022000048262002b
:1011cc00e00f520005003200244d80000402e800bc
:1011dc00244d880096a3a90008003700451780000d
:1011ec000400220004826200e00f52000200320070
:1011fc00e9a2a90001003700e9a2a800d41c8000d4
:10120c00144d88000080fa004f03be004f02be0050
:10121c004f01be004f00be003600f9000040060032
:10122c000000fa00a40020004452880001000700ce
:10123c00feff37000000fa0044528000f40f520009
:10124c0012003200f40f520003003e00ea0f52006d
:10125c00080032005200370025032000850f520091
:10126c0019003200c5032000850f520037003200f0
:10127c004b003700a80007008649a9008609a80082
:10128c004401200044528800480037008609a80019
:10129c00ad02070008003700460007007d0007007c
:1012ac00a5538000f4182000848f520002003600f1
:1012bc00240320004452880044528000f40f520052
:1012cc00f5ff3200390037000002eb0004538800b0
:1012dc000002eb00145388000002eb00245388003a
:1012ec000002eb00345388000002eb0044538800ea
:1012fc00849820008002eb00050a78008609a9007a
:10130c000d0037002b00070074538000e00f5200d3
:10131c00030032000002eb0074538800ce0107007a
:10132c008498200014027800e00f52000200320072
:10133c00c40320004452880045528000240320003e
:10134c00848f5200efff3200180037008609a80086
:10135c000e0037001700070074538000e00f520096
:10136c00030032000002eb0074538800ba0107003e
:10137c00249c20001402780061026200e00f5200ed
:10138c0002003200240320004452880045528000a1
:10139c00c4032000848f5200eeff3200030037009c
:1013ac00c403200044528800000000000080fa00b2
:1013bc00000006000000fa0004fc0700344c80001a
:1013cc0062026200e00f5200010032008869a8003e
:1013dc00344c800061026200e00f520002003200c7
:1013ec00e982a90001003700e982a80035048000d9
:1013fc000404200004826200e00f5200230032003b
:10140c0086c0a90044528000f40f520003003a0039
:10141c00a45380000402e800a4538800b453800055
:10142c006a024200b4538800b5538000743e200019
:10143c00848f5200030036000002eb00b453880086
:10144c005101070004538000344b88001453800072
:10145c00444b880024538000544b88001452800065
:10146c00744b880034528000844b880004528000f6
:10147c00944b880024528000a44b8800f44f8000c9
:10148c00b44b8800d44e8000c44b88000080fa0016
:10149c00000006000000fa00a45380004422de0085
:1014ac0063026200050020003600200007002000c7
:1014bc00860f5200878f5a0015003e000460010011
:1014cc000300370006003700090037000c00370016
:1014dc00c4e2a800e982a800e9a2a8000c00370029
:1014ec00c4e2a900e982a800e9a2a800080037001c
:1014fc00c4e2a900e982a900e9a2a800040037000f
:10150c00c4e2a900e982a900e9a2a9000000000038
:10151c000080fa00000006000e00fa00881f780018
:10152c00849820008002eb00050a78006498200063
:10153c008002eb00050a78000002eb00544c880096
:10154c000002eb00644c88000002eb00f44c8800b5
:10155c000002eb00e44c880034002000044d8800ad
:10156c00e40480000400a0000410a0000420a000eb
:10157c00e40488008220a8008e00a80034058000b6
:10158c000400a1000410a0000420a0003405880071
:10159c008260a900046025000416880074002200f3
:1015ac00341688000002eb006416880004f020005a
:1015bc009416880034002000f4168800c41c240003
:1015cc00241788000002eb00a408880086a0a9005c
:1015dc0054f92d00f4088800440d2300e408880019
:1015ec000002eb00c408880086c0a900d4f92d00c5
:1015fc000409880006a8210067002000046829005f
:10160c0085092000030022000041eb0001cab30051
:10161c0080a720001002070018fe0700f4ff270027
:10162c00841f78008083eb00060028008002eb000a
:10163c000082eb0080c1eb000001eb003140200088
:10164c00409d2000fa0407008f87e900f4ff270073
:10165c00841f78008083eb00060028008002eb00da
:10166c000082eb0080c1eb000001eb003140200058
:10167c00809f2000ee0407008f87e900f4ff27000d
:10168c00841f78008083eb0006002800052c2100c5
:10169c000445210080c1eb000001eb00012020007b
:1016ac00c0a12000e20407008f87e900066829002a
:1016bc008709200004482800e501200003002a00c7
:1016cc000001eb00f153200020c0b3007c060700a2
:1016dc00b4ff2d0044158800f4cf270004158800b2
:1016ec00c4bf26001415880034f52f00241588007b
:1016fc00d4de2e00341588008560a900a1e2a80074
:10170c000000000025048000048020000482620098
:10171c00e00f5200fbff3200a1e2a900051480008b
:10172c0014148000848242002414800084824200bd
:10173c00341480008482420044148000848242006d
:10174c00541480008482420064148000848242001d
:10175c0074148000048242000451880005518000fa
:10176c00861480009414800004034300a4148000a9
:10177c0004034300b414800004034300c414800029
:10178c0004034300d414800004034300e4148000d9
:10179c0004034300f414800004024300048242005a
:1017ac0004518800c0a1200056050700c0a12000ec
:1017bc009305070000027800e00f5200040032008d
:1017cc008669a800110020000096200068fb070025
:1017dc00c0a120009805070000027800e00f52001d
:1017ec00040032008669a800210020000096200029
:1017fc005ffb0700f4c127000415880004bc260019
:10180c001415880074042e0024158800242e2e0034
:10181c00341588008560a900a1e2a800a022a800c8
:10182c008e017800720020000102200080a72000a9
:10183c00770307006e0490000e0078002c00070060
:10184c0000027800840f540025003a000e02780044
:10185c001402be0084528800955288000e02780053
:10186c00640242005403be004402be0040a52000a6
:10187c000498be000690be008652800097528000ed
:10188c000082eb008082eb00840f5300858f5b009d
:10189c000b00320044a520003400be002401be0021
:1018ac00f4ff2f00f5ff2f000403be000400e1003d
:1018bc000588e1000690e1000798e10008003a0075
:1018cc006022b800845288009552880040a5200000
:1018dc006022b8006033b8000498be000690be00c9
:1018ec00a022a9004f0478000080fa000000060036
:1018fc000400fa00100798001e029000140f7800e4
:10190c001e0290000482e800140798001e0290004a
:10191c00140278001e0f42001e0290000482e800a0
:10192c00140798001e029000140278001e0f42004b
:10193c001e0290000482e800140798001e0290001a
:10194c00140278001e0f42001e0290000482e80070
:10195c00140798001e029000140278001e0f42001b
:10196c001e0290000482e800140798001e029000ea
:10197c00140278001e0f42001e027800040078004a
:10198c000080fa00000006000e00fa00881f7800a4
:10199c0004a5200004007800d5ff070000027800a1
:1019ac00e4528800f4528000e00f52001400320020
:1019bc0004a52000840178007200200001022000a0
:1019cc0080a72000720207008e01780072002000b0
:1019dc000102200080a720000d0307006e04900078
:1019ec000e007800c2ff070000027800840f54003c
:1019fc0016003a000002eb00f45288001300370086
:101a0c0004a520008401780072002000110220003f
:101a1c0080a720005e0207008e0178007200200073
:101a2c001102200080a72000f90207006e0490002c
:101a3c000e007800aeff070000027800840f5400ff
:101a4c0002003a0014002000f45288004f04780081
:101a5c000080fa00000006000000fa0000192000c7
:101a6c0001002000d1090700d082a90021c0b300d9
:101a7c000000eb005d0607000002be0004027800c7
:101a8c00e44f8800e44f8000844e8800d082a80088
:101a9c00d042a900cb22a900041480004422dd000e
:101aac00c44e8800c44e8000744e8800409d2000b7
:101abc0094040700809f2000920407008729a90046
:101acc00a51680000410200004826200e00f520072
:101adc0005003a00a51680000480200004826200f4
:101aec00e00f520008003a008729a8004417800034
:101afc0062026200e00f520002003200e822a900ec
:101b0c0001003700e822a800354c8000042020009a
:101b1c0004826200e00f520018003200cb02a800d1
:101b2c004001200001002000a0090700cb02a90001
:101b3c00845280009552800061024200e0824a008b
:101b4c008452880095528800545280000402e800a8
:101b5c0054528800045380000402e80004538800a7
:101b6c00145380000402e8001453880024538000ae
:101b7c000402e80024538800060037002453800038
:101b8c00e00f520003003200245380000402e900ed
:101b9c002453880044a520003400be002401be005c
:101bac0014002000050020006033b8000002420041
:101bbc0081824a0002034b0083834b0040a5200026
:101bcc000498be000690be006452800075528000de
:101bdc0061024200e0824a0064528800755288001b
:101bec00345380000402e8003453880034538000de
:101bfc00f00f5200080036000002eb00345388004e
:101c0c0004538000e00f52000300320004538000a4
:101c1c000402e90004538800445380000402e800e5
:101c2c004453880045538000040f2000848f5200d9
:101c3c00080036000002eb00445388001453800067
:101c4c00e00f520003003200145380000402e9003c
:101c5c00145388001553800034062000848f5200e2
:101c6c00010036008809a8000553800014032000e9
:101c7c00848f5200010036008829a800245380006c
:101c8c00ee0f5200010036008849a800354c800048
:101c9c000420200004826200e00f520026003a006b
:101cac00354c80000410200004826200e00f5200ca
:101cbc0011003200d54e80000452800062002000da
:101ccc0085007800040078000f09070000027800f6
:101cdc0004528800f54f80002452800062002000de
:101cec0085007800040078000709070000027800de
:101cfc002452880010003700d54e8000145280000a
:101d0c00620020008500780004007800fe080700bf
:101d1c000002780014528800f54f80003452800085
:101d2c00620020008500780004007800f6080700a7
:101d3c00000278003452880003000700890807006d
:101d4c000080fa00000006000000fa00d602a9008c
:101d5c00400120000100200014090700d602a80051
:101d6c000080fa0000000600849fbe000000fa000c
:101d7c00a022a900cb22a800000000000000000057
:101d8c000000000000000000000000000000000047
:101d9c000000000000000000000000000000000037
:101dac00d042a800344c80004822de006142620020
:101dbc000482fb0064538800944a800054538800ca
:101dcc001400200074538800a5088000e4ab2000a8
:101ddc00848f520008003e0035048000040220006d
:101dec0004826200e00f520003003a00845380002a
:101dfc000402e8008453880086a0a9000002eb00ce
:101e0c00a40888008600a900e802a9000080fa0056
:101e1c004f02be0000400600849fbe000000fa0086
:101e2c00350480000402200004826200e00f52009e
:101e3c0003003a00a4088000f40f5200030036009f
:101e4c00945380000402e800945388000080fa0048
:101e5c004f02be00004006000e00fa00000f780092
:101e6c0021479800324798002307980034079800c0
:101e7c004507980056079800670798001e027800df
:101e8c00ae429000054a78001e027800be429000d7
:101e9c00154298001e027800ae02900015029800c0
:101eac001e027800144090006033b8003e0290008f
:101ebc00ce0290005e019000ee01900001022b001a
:101ecc00fb0507000080fa00000006001200fa0073
:101edc006007980071079800020f98006e0290003e
:101eec00140290008402d1007e029000848f520074
:101efc00790036000e0a90004822de0064479800f4
:101f0c000e0a9000744798007e0290000402420072
:101f1c00440798004e0290004822de00244f98009f
:101f2c004e029000344f980014002000040f7800eb
:101f3c006e02900014429000044078001a060700cc
:101f4c0000027800040f78006e029000144290009a
:101f5c000440780035060700000278001e0f72005e
:101f6c006e029000944290006e0290001442780031
:101f7c0085407800044078006e0607000002780067
:101f8c001e0f7200441080004f22de0004427800c5
:101f9c000482fb00240798000002eb001407980051
:101fac00230037006e029000144290000440780029
:101fbc00d0060700000278001e0f72006e0290001f
:101fcc001442900004407800f705070000027800e6
:101fdc00040f78006e0290001442900004407800c8
:101fec0012060700000278001e0f72006e029000ad
:101ffc00944290006e029000144278008540780064
:10200c00044078004b060700000278001e0f720097
:10201c00441080004f22de00044278000482fb0052
:10202c00240798001e0290000402e8001407980090
:10203c002e029000e00f5200040032009e0290002d
:10204c00840c2000848f5200d6ff36006e02900064
:10205c0014429000844078002e489000350607000a
:10206c00000278001e0f72006e0290001442900065
:10207c00844078003e4890002e060700000278004d
:10208c001e0f72006e029000144290008440780083
:10209c007e40900027060700000278001e0f720099
:1020ac006e02900014429000844078006e409000c4
:1020bc0020060700000278001e0f72006e029000ce
:1020cc0014429000044078008a0607000002780051
:1020dc001e0f7200020037000082eb00040f780024
:1020ec000080fa00000006001000fa00600798005b
:1020fc00710798006e029000140290008402d100c7
:10210c007e029000848f52008c0036007e0290007c
:10211c0004024200440798004e0290004822de0060
:10212c00244f98004e029000344f98006e0290009d
:10213c0014429000044078009b05070000027800d0
:10214c00040f78006e029000144290000440780056
:10215c00b6050700000278001e0f72006e02900098
:10216c00944290006e0290001442780085407800f2
:10217c0004407800ef050700000278001e0f720083
:10218c00441080004f22de00044278000482fb00e1
:10219c00340798000002eb00240798002300370056
:1021ac006e02900014429000044078005106070023
:1021bc00000278001e0f72006e0290001442900014
:1021cc00044078007805070000027800040f7800be
:1021dc006e029000144290000440780093050700b2
:1021ec00000278001e0f72006e0290009442900064
:1021fc006e0290001442780085407800044078000c
:10220c00cc050700000278001e0f720044108000fd
:10221c004f22de00044278000482fb003407980051
:10222c002e0290000402e800240798003e02900061
:10223c00e00f520004003200ae029000840c20002b
:10224c00848f5200d6ff36006e029000144290002c
:10225c00844078002e489000b605070000027800f4
:10226c001e0f72006e0290001442900084407800a1
:10227c003e489000af050700000278001e0f720068
:10228c006e0290001442900004407800880507000c
:10229c00000278001e0f72006e02900094429000b3
:1022ac006e029000144278000404a000854078006f
:1022bc00044078009f050700000278001e0f720092
:1022cc006e0290001442900004407800d005070084
:1022dc0000027800244798006e029000144290008f
:1022ec000440780024060700000278001e0f7200dc
:1022fc006e0290001442900004407800c405070060
:10230c0000027800344798006e029000144290004e
:10231c00044078003a060700000278001e0f720095
:10232c006e0290001442900004407800f105070002
:10233c00000278001e0f7200060037000082eb00ce
:10234c00040f78000042eb00244798000042eb0099
:10235c00344798003e4290000482fb0044079800ea
:10236c004e0290004822dd00440798002e42900057
:10237c000482fb00ce0290000482420044079800c5
:10238c004e029000040078000080fa000000060065
:10239c001600fa0070079800010f9800120f9800b1
:1023ac00230f98001e0a9000e00f52009600320096
:1023bc001e0a9000f00f52000200360004012000ab
:1023cc00140f98007e02900014029000c522de00cb
:1023dc000e0a9000848f5200890036000e0a90007d
:1023ec004522dd00440798004e0290004822de0092
:1023fc00244f98004e029000344f98007e029000bb
:10240c001442900004407800e704070000027800b2
:10241c00040f78007e029000144290000440780073
:10242c0002050700000278001e0f72007e02900069
:10243c00944290007e02900014427800854078000f
:10244c00044078003b050700000278001e0f720064
:10245c00441080004f22de00044278000482fb000e
:10246c00340798000002eb00240798002300370083
:10247c007e02900014429000044078009d050700f5
:10248c00000278001e0f72007e0290001442900031
:10249c0004407800c404070000027800040f7800a0
:1024ac007e0290001442900004407800df04070084
:1024bc00000278001e0f72007e0290009442900081
:1024cc007e02900014427800854078000440780029
:1024dc0018050700000278001e0f720044108000df
:1024ec004f22de00044278000482fb00340798007f
:1024fc002e0290000402e800240798003e0290008f
:10250c00e00f520004003200ae029000840c200058
:10251c00848f5200d6ff36007e0290001442900049
:10252c00844078002e4890000205070000027800d5
:10253c001e0f72007e0290001442900084407800be
:10254c003e489000fb040700000278001e0f72004a
:10255c000002eb00140798001e0037001e029000ca
:10256c0004024200ae0a9000048242001402780079
:10257c004822de00444f98001e02900004024200e4
:10258c00ae0a90000482420014027800544f980066
:10259c007e02900014429000844078005e489000c7
:1025ac00e4040700000278001e0f72007e02900007
:1025bc0014429000844078004e489000dd040700df
:1025cc00000278001e0f72001e0290000402e80048
:1025dc00140798009e0290001e0a9000848f5200ef
:1025ec00deff39007e029000144290000440780017
:1025fc0040050700000278001e0f72000200370031
:10260c000082eb00040f78000080fa000000060046
:10261c001600fa0070079800010f9800120f98002e
:10262c00230f98001e0a9000e00f5200fe003200ab
:10263c001e0a9000f00f5200020036000401200028
:10264c00140f98007e02900014029000c522de0048
:10265c000e0a9000848f5200ed0036000e0a900096
:10266c004522dd00440798004e0290004822de000f
:10267c00244f98004e029000344f98007e02900038
:10268c0014429000044078004704070000027800d0
:10269c00040f78007e0290001442900004407800f1
:1026ac0062040700000278001e0f72007e02900088
:1026bc00944290007e02900014427800854078008d
:1026cc00044078009b040700000278001e0f720083
:1026dc00441080004f22de00044278000482fb008c
:1026ec00340798000002eb00240798002300370001
:1026fc007e0290001442900004407800fd04070014
:10270c00000278001e0f72007e02900014429000ae
:10271c00044078002404070000027800040f7800bd
:10272c007e02900014429000044078003f040700a1
:10273c00000278001e0f72007e02900094429000fe
:10274c007e029000144278008540780004407800a6
:10275c0078040700000278001e0f720044108000fd
:10276c004f22de00044278000482fb0034079800fc
:10277c002e0290000402e800240798003e0290000c
:10278c00e00f520004003200ae029000840c2000d6
:10279c00848f5200d6ff36007e02900014429000c7
:1027ac00844078002e4890006204070000027800f4
:1027bc001e0f72007e02900014429000844078003c
:1027cc003e4890005b040700000278001e0f720068
:1027dc007e029000144290000440780034040700fc
:1027ec00000278001e0f72007e029000944290004e
:1027fc007e029000144278000404a000854078000a
:10280c00044078004b040700000278001e0f720091
:10281c000002eb00140798003a0037007e0290008b
:10282c0014429000044078007904070000027800fc
:10283c00444f98007e0290001442900004407800af
:10284c00cd040700000278001e0f72007e0290007b
:10285c0014429000044078006d04070000027800d8
:10286c00544f98007e02900014429000044078006f
:10287c00c1040700000278001e0f72001e029000b7
:10288c0004024200ae0a9000848242005e4a90002c
:10289c000482fb00840a78001e02900004024200ad
:1028ac00ae0a9000848242001e0290000402420094
:1028bc002e0b900004024300140278004822dd0025
:1028cc00840a78001e02900004024200ae0a9000b6
:1028dc00848242001e029000040242002e0b9000e3
:1028ec0004024300140378004e4a90000482fb005b
:1028fc0004024300840a78001e0290000402e800df
:10290c00140798001e0a90008402e9001e02900031
:10291c00848f5200c1ff3e007e0290001442900052
:10292c00044078003a04070000027800444f9800f5
:10293c007e02900014429000044078008e04070040
:10294c00000278001e0f72007e029000144290006c
:10295c00044078002e04070000027800544f9800c1
:10296c007e0290001442900004407800a4040700fa
:10297c00000278001e0f72001e029000040242003a
:10298c00ae0a9000848242005e4a90000482fb00f2
:10299c00840a78001e02900004024200ae0a9000e5
:1029ac00848242001e029000040242002e0b900012
:1029bc0004024300140278004822dd00840a7800e7
:1029cc001e02900004024200ae0a90008482420073
:1029dc001e029000040242002e0b900004024300e1
:1029ec00140378004e4a90000482fb00040243005a
:1029fc00840a78007e029000144290000440780013
:102a0c003c040700000278001e0f7200060037001d
:102a1c000082eb00040f78000042eb00444f98005a
:102a2c000042eb00544f98000080fa0000000600b2
:102a3c001200fa001007980021079800320798003e
:102a4c00034f980054079800650798007607980084
:102a5c00070f98000002eb00040f78001e03900093
:102a6c006022b800048bbe001e0290008002eb00b6
:102a7c00250298001e0290008002eb00350298009f
:102a8c001e029000ae029000450298001e029000bb
:102a9c00be029000550298000e4a9000e14f420091
:102aac000d003a001e0290000500280065029800f7
:102abc001e0290008002eb00750298001e0290002e
:102acc0005002800050a98001e0290008002eb0009
:102adc00150a98000c0037001e0290000500280013
:102aec00650298001e0290008002eb0075029800af
:102afc001e02900005002800050a98001e02900096
:102b0c008002eb00150a98001e029000de02900075
:102b1c00250a98001e029000ee029000350a9800db
:102b2c001e029000fe029000550a98001e029000b2
:102b3c008e0a9000650a98001e0290008002eb003d
:102b4c00750a98001e0290008002eb000512980096
:102b5c001e029000ceba9700151298000080fa0061
:102b6c00000006001000fa001007980021079800da
:102b7c0032079800034f9800540798006507980097
:102b8c00760798000002eb00040f78001e029000fc
:102b9c008002eb00250298001e029000de029000dd
:102bac00350298001e029000ee029000450298003b
:102bbc001e029000fe029000550298001e0290002a
:102bcc00ae029000650298001e029000be029000ba
:102bdc00750298000e4a9000e14f42000d003a0039
:102bec001e02900005002800050a98001e029000a5
:102bfc008002eb00150a98001e02900005002800c8
:102c0c00250a98001e0290008002eb00350a9800fd
:102c1c000c0037001e02900005002800050a9800e1
:102c2c001e0290008002eb00150a98001e02900014
:102c3c0005002800250a98001e0290008002eb0077
:102c4c00350a98000080fa00000006000400fa0023
:102c5c00100798001e029000740390001e02900052
:102c6c00e40290001e029000140278000601780025
:102c7c0085007800040078000e050700000278003b
:102c8c00040f78001e029000940a90001e0290001f
:102c9c00040a900005017800840078001e0078007a
:102cac00ef04070000027800040f78001e02900069
:102cbc00b40a90001e029000240a900005017800ce
:102ccc00840078001e007800e504070000027800fc
:102cdc00040f78001e02900024029000e00f5200b6
:102cec0003003a001e029000d4029000050f7800f9
:102cfc001e0290009e027800150298000080fa00d7
:102d0c00000006000400fa00100798001e02900054
:102d1c00140b90001e029000840a90001e0290007a
:102d2c0024029000060178008500780004007800e9
:102d3c00cb04070000027800040f78001e029000fc
:102d4c00f40290001e0290006402900005017800cd
:102d5c00840078001e007800c1040700000278008f
:102d6c00040f78001e029000d40290001e02900006
:102d7c004402900005017800840078001e00780061
:102d8c00cc04070000027800040f78001e029000ab
:102d9c009e027800350298000080fa0000000600c0
:102dac000400fa00000f7800110798001e0278004a
:102dbc00b40290001e029000848f52000300310078
:102dcc001e027800b4029000150798001e027800cd
:102ddc00c40290001e029000848f52000300360043
:102dec001e027800c4029000150798001e0278009d
:102dfc009e029000050a78000080fa000000060090
:102e0c000200fa00000f78001e027800b402900055
:102e1c001e027800240a9000848f520002003600b3
:102e2c0014002000010037000002eb0004007800c1
:102e3c000080fa00000006000200fa00000f780083
:102e4c001e027800b40290001e027800340a900032
:102e5c00848f520002003100140020000100370062
:102e6c000002eb00040078000080fa00000006006d
:102e7c000400fa00100798001e029000d40a90007b
:102e8c001e029000440a90000001eb0085007800bf
:102e9c00040078007204070000027800040f780028
:102eac001e029000640a90009e0f52000300360030
:102ebc001e029000e40a9000050f780004f02f0029
:102ecc009e0252001e029000440a9000848f520011
:102edc00040036001e029000440a90001e0f4200af
:102eec000200370004f02f00040f78001e0290003f
:102efc00340290009e0f5200060036001e02900015
:102f0c00740a90008402e8001e029000750a980072
:102f1c00090037001e029000740a9000e00f520066
:102f2c00050032001e029000740a90008402e90031
:102f3c001e029000750a98001e029000f40a900080
:102f4c001e02900014129000848f52000f00390062
:102f5c001e029000f40a90001e02900014129000c1
:102f6c0004024200848f5200060039001e029000b9
:102f7c001412900004024200840278001e02900099
:102f8c00750a980014002000010037000002eb00c5
:102f9c00040078000080fa00000006000400fa002b
:102fac00100798001e029000d40a90001e02900098
:102fbc00440a90000001eb008500780004007800c2
:102fcc002704070000027800040f78001e0290000e
:102fdc00640a90009e0f5200030036001e029000ff
:102fec00e40a9000050f78001e029000440a90003d
:102ffc009e0f5200040036001e029000440a9000fe
:10300c001e0f5200020037000002eb00040f780084
:10301c001e029000340290009e0f520006003100f8
:10302c001e029000041290008402e8001e02900020
:10303c0005129800090037001e029000041290003f
:10304c00e00f5200050032001e02900004129000a6
:10305c008402e9001e029000051298001e029000e6
:10306c00841290001e02900014129000848f520063
:10307c000f0039001e029000841290001e02900076
:10308c001412900004024200848f52000600390092
:10309c001e02900014129000040242008402780078
:1030ac001e02900005129800140020000100370049
:1030bc000002eb00040078000080fa00000006001b
:1030cc001400fa0040479800310798004207980016
:1030dc00530798006407980075079800060f98002e
:1030ec00170f98003e029000f401b30034079800cb
:1030fc000e0b90009e0b9000463add00ca32de00ab
:10310c00850272004632dd006e019000fe019000d7
:10311c000400be0086f407000002be00048fbe004f
:10312c0004202000050020001e03be00840f530065
:10313c00858f5b0003003e0014002000e4538800e0
:10314c003200370034802000050020001e03be0032
:10315c00840f5300858f5b000d003e00440020005f
:10316c00e45388001e02be004e2bdd004222de001e
:10317c0004027300c22ade00048fbe00be0290005f
:10318c00e4ff2f0004826200340798001f00370010
:10319c00f4002200050020001e03be00840f530023
:1031ac00858f5b000d003e0004012000e453880075
:1031bc001e02be004c2bdd004422de000402730014
:1031cc00c42ade00048fbe00be029000d4ff2f0084
:1031dc0004826200340798000c00370004042000bd
:1031ec00e45388001e02be004a2bdd004622de009e
:1031fc0004027300c62ade00048fbe00be029000db
:10320c00c4ff2f000482620034079800041c2000c5
:10321c00050020001e03be00840f5300858f5b0049
:10322c0008003600e45380004322dd00e45388009c
:10323c00be02900034fe2f00048262003407980016
:10324c005700370004182000050020001e03be00a4
:10325c00840f5300858f5b0009003600e453800017
:10326c006722b90004027800e4538800be02900083
:10327c0074fe2f0004826200340798004800370067
:10328c0004142000050020001e03be00840f530010
:10329c00858f5b0009003600e45380006622b9007c
:1032ac0004027800e4538800be029000b4fe2f00a4
:1032bc0004826200340798003900370004102000a3
:1032cc00050020001e03be00840f5300858f5b0099
:1032dc0009003600e45380006522b900040278002e
:1032ec00e4538800be029000f4fe2f0004826200ba
:1032fc00340798002a003700040c20000500200039
:10330c001e03be00840f5300858f5b00080036003f
:10331c00e45380004222dd00e4538800be0290009a
:10332c0034ff2f0004826200340798001c00370021
:10333c0004082000050020001e03be00840f53006b
:10334c00858f5b0009003600e45380006322b900ce
:10335c0004027800e4538800be02900074ff2f0032
:10336c0004826200340798000d003700040420002a
:10337c00050020001e03be00840f5300858f5b00e8
:10338c0007003600e453800004024200e453880036
:10339c00be029000b4ff2f00048262003407980034
:1033ac00e45380004222dd00e45388004e4290003a
:1033bc00e14f520004003a003e02900014118800c4
:1033cc005e039000061188004e429000e24f5200be
:1033dc0004003a003e029000441188005e03900005
:1033ec00361188000080fa00000006000c00fa007c
:1033fc0040079800214f98000042eb00044f7800e2
:10340c002e4a9000e14f520054003a008500a9006a
:10341c004e029000241188000002eb003407980043
:10342c00180037003e0290000402e80034079800b0
:10343c00e4538000be029000848f520003003600db
:10344c0034c0b300044f78000e0037000511800023
:10345c000404200004826200e00f520003003200da
:10346c0044c0b300044f78000600370004118000fc
:10347c0062026200e00f520002003a0014c0b30076
:10348c00044f78001e427800e04f5200e5ff3200f6
:10349c00200037003e0290000402e8003407980038
:1034ac00e4538000be029000848f5200030036006b
:1034bc0034c0b300044f78001600370005118000ab
:1034cc000404200004826200e00f5200030032006a
:1034dc0044c0b300044f78000e0037002504800070
:1034ec000410200004826200e00f5200030032003e
:1034fc0024c0b300044f780006003700041180008c
:10350c0061026200e00f52000200320024c0b300de
:10351c00044f78001e427800e14f5200ddff32006c
:10352c001e427800e24f520005003a002411800040
:10353c0005002000140798002507980007003700a5
:10354c00040020001511210014079800250798008d
:10355c00f45380000402e800f45388002e4a9000d3
:10356c00e24f52004d003a008740a9004e029000f5
:10357c00541188000002eb00340798001800370043
:10358c003e0290000402e80034079800e4538000e7
:10359c00be029000848f52000300360034c0b3008a
:1035ac00044f78000e003700351180000404200011
:1035bc0004826200e00f52000300320044c0b300ea
:1035cc00044f78000600370034118000620262005c
:1035dc00e00f520002003a0014c0b300044f780010
:1035ec001e427800e04f5200e5ff32001900370010
:1035fc003e0290000402e80034079800e453800077
:10360c00be029000848f52000300360034c0b30019
:10361c00044f78000f00370035118000040420009f
:10362c0004826200e00f52000300320044c0b30079
:10363c00044f780007003700350480000440200058
:10364c0004826200e00f52000200320024c0b3007a
:10365c00044f78001e427800e14f5200e4ff320024
:10366c001e427800e24f520005003a0054118000cf
:10367c000500200014079800250798000700370064
:10368c00040020001511210014079800250798004c
:10369c00045480000402e800045488001e029000c8
:1036ac00ae0290000400be000080fa00000006008c
:1036bc001400fa0040479800310798004207980020
:1036cc00530798006407980075079800060f980038
:1036dc00170f98004e019000de0190006e009000d4
:1036ec00fe00900012f307000002be00048fbe0023
:1036fc001e0278004422dd00445488006e029000c3
:10370c00fe02900052cd2d00230320000400be00c9
:10371c0007f307000002be001e1f12001e971a00be
:10372c000082eb008082eb001e0f42005e974a0085
:10373c001e03be001400200005002000840f53005f
:10374c00858f5b0003003e00240020000500200054
:10375c00048fbe00f4ff2f00050020001e03be00e6
:10376c00840f5300858f5b0003003600240020007b
:10377c0005002000048fbe004e429000e04f520026
:10378c00030032004e429000e14f520004003a0018
:10379c00be029000351088001e02780024108800ac
:1037ac000080fa00000006000600fa00404798006e
:1037bc000002eb00140798004e429000e04f5200bc
:1037cc00030032004e429000e14f520013003a00c9
:1037dc000002eb00040f78000b0037001e0fe8000e
:1037ec00445480009e027800848f520006003600fc
:1037fc0004a02f0014079800345480000402e80041
:10380c003454880005003700451080000400240063
:10381c0004826200e00f5200f0ff3a001e0290009a
:10382c00040078000080fa00000006000600fa0090
:10383c00404798000002eb00140798004e4290009d
:10384c00e04f5200030032004e429000e14f520014
:10385c0013003a000602a8000002eb00040f7800e7
:10386c000b0037001e0fe800445480009e027800c5
:10387c00848f52000600360004a02f001407980015
:10388c00345480000402e8003454880004003700eb
:10389c003410800061026200e00f5200f1ff3a0028
:1038ac001e029000040078000080fa000000060060
:1038bc000600fa00404798000002eb00140798003d
:1038cc004e429000e04f5200030032004e429000f6
:1038dc00e14f520013003a000622a8000002eb0050
:1038ec00040f78000b0037001e0fe80044548000d2
:1038fc009e027800848f52000600360004a02f0030
:10390c0014079800345480000402e80034548800f2
:10391c00040037003410800062026200e00f520095
:10392c00f1ff3a001e029000040078000080fa00bb
:10393c00000006000600fa00404798005147980026
:10394c000002eb00140798005e429000e04f52001a
:10395c00030032005e429000e14f520028003a0012
:10396c004e4290000482fb00141088000002eb0011
:10397c00040f78000c0037001e0fe8004454800040
:10398c009e027800848f52000700360004a02f009e
:10399c0014079800345480000402e8003454880062
:1039ac0000000000110037004510800004002400c6
:1039bc0004826200e00f5200efff32000b00370070
:1039cc001e0fe800445480009e027800848f520041
:1039dc000600360004a02f00140798003454800011
:1039ec000402e800345488000500370045108000bc
:1039fc000400240004826200e00f5200f0ff3a0041
:103a0c001e029000040078000080fa0000000600fe
:103a1c000600fa00404798000002eb0014079800db
:103a2c004e429000e04f5200030032004e42900094
:103a3c00e14f52002b003a000662a8000002eb0096
:103a4c00040f78000c0037001e0fe800445480006f
:103a5c009e027800848f52000700360004a02f00cd
:103a6c0014079800345480000402e8003454880091
:103a7c000000000010003700341080006802620063
:103a8c00e00f5200f0ff3a000b0037001e0fe80069
:103a9c00445480009e027800848f52000600360049
:103aac0004a02f0014079800345480000402e8008e
:103abc003454880004003700441080006202620015
:103acc00e00f5200f1ff32001e029000e00f520096
:103adc0004003a0005108000f40f200004826200fc
:103aec00140798001e029000040078000080fa0071
:103afc00000006000600fa00404798000002eb00a8
:103b0c00140798004e429000e04f52000300320020
:103b1c004e429000e14f520013003a000642a800ba
:103b2c000002eb00040f78000b0037001e0fe800ba
:103b3c00445480009e027800848f520006003600a8
:103b4c0004a02f0014079800345480000402e800ed
:103b5c003454880004003700341080006402620082
:103b6c00e00f5200f1ff3a001e02900004007800b2
:103b7c000080fa00000006000600fa00404798009a
:103b8c000002eb00040f78000002eb001407980011
:103b9c004e429000e04f5200030032004e42900023
:103bac00e14f520012003a0006a2a9000682a800ba
:103bbc000b0037001e0fe800445480009e02780072
:103bcc00848f52000600360004a02f0014079800c2
:103bdc00345480000402e800345488000400370098
:103bec003410800070026200e00f5200f1ff3a00c6
:103bfc001e029000040078000080fa00000006000d
:103c0c000600fa00404798000002eb00040f780011
:103c1c000002eb00140798004e429000e04f520057
:103c2c00030032004e429000e14f520012003a0065
:103c3c0006a2a8000682a8000b0037001e0fe800a1
:103c4c00445480009e027800848f52000600360097
:103c5c0004a02f0014079800345480000402e800dc
:103c6c003454880004003700341080007002620065
:103c7c00e00f5200f1ff3a001e02900004007800a1
:103c8c000080fa00000006001001900090007800ff
:103c9c00010051000000e900f000b2000000060035
:103cac00100190009000780002805000f000b200eb
:103cbc00000006001170a6001a003700e401400055
:103ccc009309e800900190001001e800f200b200a6
:103cdc000310e10010003200100178006a11b800e6
:103cec00e8014000828141006e81500092197800f9
:103cfc0066014100b2197800b2197800b219780047
:103d0c00b21978001001e800f200b2000208780045
:103d1c00e60140009309e900e60140009309e80040
:103d2c001170a100000006001170a60009003700f8
:103d3c006e8150001218780066014100321878002c
:103d4c003218780032187800321878001170a100ff
:103d5c0008003700827f2100021878000200200042
:103d6c0002187800021878000218780002187800ff
:103d7c003100370000000600e40140009309e80020
:103d8c00900190001001e800f200b2000310e10075
:103d9c000e003200100178006a11b800e8014000f2
:103dac0082814100b1197800b1197800b1197800fd
:103dbc00b1197800b11978001001e800f200b200d6
:103dcc0002087800e60140009309e900e601400092
:103ddc009309e800000006001001900090017800a3
:103dec000310e10008003a00837f2100831878005b
:103dfc00030020008318780083187800831878005b
:103e0c00831878000c0037006a11b8006801410073
:103e1c0000014100b2187800b2187800b21878008e
:103e2c00b2187800b2187800100190000201e80076
:103e3c00f200b20012009800000006001130a7003a
:103e4c001300370010019000900178000310e1007e
:103e5c000f0032006a11b8006801410000014100f6
:103e6c00ee815000b2097800e6814100b219780069
:103e7c00b2197800b2197800b21978001130a0008c
:103e8c00100190000201e800f200b200120098004c
:103e9c00000006001130a1006e815000300978003e
:103eac00660141003019780030197800301978001b
:103ebc00301978001130a000000006000018eb004b
:103ecc000018eb000018eb000008eb0000000600e7
:103edc000400fa00100798001e029000c402900023
:103eec00050f7800a44d80000402e800a44d880062
:103efc000080fa00000006000400fa001007980089
:103f0c001e029000c4029000050f7800a44d8000a2
:103f1c000402e800a44d88000080fa0000000600ae
:103f2c000400fa00100798001e029000c4029000d2
:103f3c00050f7800f4ff20001e0f6200a44d8000d6
:103f4c000402e800a44d88000080fa00000006007e
:103f5c000000fa0014002000745488000080fa005d
:103f6c00000006000000fa00344c80004922de00fc
:103f7c00614262000482fb00f74f8000d64e800045
:103f8c005553800087017800060178008500780081
:103f9c00c0022000aff207000080fa00000006000b
:103fac000000fa0004528000165280005552800026
:103fbc0086017800050178008000eb00d00220001b
:103fcc00a4f207000080fa00000006000000fa00ce
:103fdc00c4a4200014027800c5a420008582e80047
:103fec009503780005a520001503780005a5200091
:103ffc008582e80095027800870178000601780038
:10400c0085007800e002200092f207000080fa00a0
:10401c00000006000000fa0044a5200014027800fd
:10402c0045a520008582e8009503780045a5200071
:10403c00e48242001503780045a52000e682420088
:10404c0095027800870178000601780085007800d9
:10405c00f00220007ff207000080fa00000006004a
:10406c000200e00005003b000200400008003100a7
:10407c00000020008a2aec000500370002004000f6
:10408c0003003900f0ff2f008a2aec0000003700f3
:10409c000101b8006218b8000100e0000200320013
:1040ac00f0ff2f008a2aec00cf10de000100700018
:1040bc00000006000200e00005003b00020040008a
:1040cc0008003100000020008c2aec0005003700ad
:1040dc000200400003003900f0ff2f008c2aec0096
:1040ec00000037000101b8007018b8000100e000b2
:1040fc0002003200f0ff2f008c2aec00cc10de0006
:10410c0001007000000006007010e1000100350095
:10411c00f20020000000e00001003a0001007800ed
:10412c00130020008219dd008301e900001ab80099
:10413c00048240000580b0000222de0070011100f4
:10414c00822add00050072000008e1000300320045
:10415c00010035000080e8000000e90000000600c6
:020000040000fa
:10416c0000080000ce010000000000008e0a0000d4
:10417c000200000000000000860a0000040000009d
:10418c00000000007c0a0000060000000000000097
:10419c008a0a00000400000000000000ce090000a4
:0c41ac00ae000000000000000000000059
:020000040000fa
:1041b800f03fb1000180b10006003500ee030900b0
:1041c80000000000403fb1000180b100fbff3d004e
:1041d8001000b000203fb000020035000080090048
:0841e8000000000000000600c9
:020000040000fa
:0200000401f009
:04000000ecbb000055
:020000040000fa
:0200000401f009
:04000400f7ff000002
:020000040000fa
:0200000401f009
:040008004fff0000a6
:020000040000fa
:0200000401f009
:04000c00ffff0000f2
:020000040000fa
:0200000401f009
:04001000ffff0000ee
:020000040000fa
:0200000401f009
:04001400ffff0000ea
:020000040000fa
:0200000401f009
:04001800ffff0000e6
:00000001FF
