:020000040000fa
:080000000001040000000000f3
:020000040000fa
:100008005a1000005a1000005a1000005a10000040
:100018005a1000005a1000005a1000005a10000030
:100028005a1000005a1000005a1000005a10000020
:100038005a1000005a1000005a1000005a10000010
:100048005a1000005a1000005a1000005a10000000
:100058005a1000005a1000005a1000005a100000f0
:10006800b40f00005a1000005a1000005a10000087
:100078005a1000005a1000005a1000005a100000d0
:100088005a1000005a1000005a10000030080000f2
:100098005a1000005a1000005a1000005a100000b0
:1000a8005a1000005a1000005a1000005a100000a0
:1000b800201000005a1000005a1000005a100000ca
:1000c8005a1000005a1000005a1000005a10000080
:1000d8005a1000005a1000005a1000005a10000070
:1000e8005a1000005a1000005a1000005a10000060
:0800f8005a1000005a1000002c
:020000040000fa
:100108005a1000005a1000005a1000005a1000003f
:100118005a1000005a1000005a1000005a1000002f
:100128005a1000005a1000005a1000005a1000001f
:100138005a1000005a1000005a1000005a1000000f
:100148005a1000005a1000005a1000005a100000ff
:100158005a1000005a1000005a1000005a100000ef
:10016800b40f00005a1000005a1000005a10000086
:100178005a1000005a1000005a1000005a100000cf
:100188005a1000005a1000005a10000030080000f1
:100198005a1000005a1000005a1000005a100000af
:1001a8005a1000005a1000005a1000005a1000009f
:1001b800201000005a1000005a1000005a100000c9
:1001c8005a1000005a1000005a1000005a1000007f
:1001d8005a1000005a1000005a1000005a1000006f
:1001e8005a1000005a1000005a1000005a1000005f
:0801f8005a1000005a1000002b
:020000040000fa
:100200004fa920000e7f22000e0188000000000090
:10021000000020000000e000020032000001200089
:10022000200288000c000700c022220001002000ec
:1002300011000700000020000000e0000200320072
:100240000000020000000000a409020000000000fd
:100250000040da000000fe004440a9000004200035
:100260000000e0000300320000002000a001880030
:100270004440a8000000060091018800800078003a
:100280000000eb0015003700e280400032a0b4000f
:100290009101ba00e280400032a0b4009102ba009d
:1002a000e280400032a0b4000002eb00472bde00e9
:1002b000f507b200602ce10004003a000059eb00a1
:1002c0008301e900fdff3e00040037006128e100e2
:1002d000010032000082eb00040007001101ba00a7
:1002e0000200e000e8ff3a00000006003159ba00c1
:1002f0008301e9000c0032002159ba008301e900b2
:10030000080032000400e00003003a00e2804000f0
:1003100032a0b400f5ff370011d9ba008301e9001b
:10032000faff3a008100e800e180400032a0b4000a
:10033000000006006022b800060220000000d00085
:100340008180d2000482d2008582d2000000a00009
:100350000202520083825a0003003100020242006e
:1003600083824a000000a1000603e900f3ff3a007f
:040370000000060083
:020000040000fa
:100374000000000000800000000000000080000079
:100384000000000000800000000000000080000069
:100394000000000000800000000000000080000059
:1003a4000000000000800000000000000080000049
:1003b4000000000000000000000000000000000039
:1003c4000000000000000000000000000000000029
:1003d4000000000000000000000000000000000019
:1003e4000000000000000000000000000000000009
:020000040000fa
:1003f4000000fa00d51c800004f02f008482620003
:10040400264d800004f02f0004026300848f520004
:100414000a003600254d8000f40f2000048262009b
:10042400244d8800254d8000d61c800004f02f0048
:100434000402630004824200244d8800d51c80001d
:10044400f40f200084826200264d8000f40f200007
:1004540004026300848f52000a003600254d800098
:1004640004f02f0004826200244d8800254d800092
:10047400d61c8000f40f20000402630004824200b2
:10048400244d880054342c00244b880034122f004f
:10049400344b8800043a8000c44a880026000700d0
:1004a400e9000700dd010700eb010700449c200080
:1004b400940278000400280004826200e00f5200d5
:1004c400010032000a020700144e8000e44a88004a
:1004d400e54a8000e44d800004824200e44a88003a
:1004e400e54a8000f44d800004824200e44a88001a
:1004f400e54a8000044e800004824200e44a8800f9
:10050400e54a8000c44d800004824200e44a880029
:10051400e54a8000b44d800004824200e44a880029
:10052400e54a8000a44d800004824200e44a880029
:100534000080fa00000006000a00fa001d003700df
:100544008e00780040802000fb0e07009e02780099
:100554008407200004826200f00f5200040032007d
:10056400c44d80000402e800c44d88001100370027
:100574009e02780004492100848f520003003a004f
:100584000e007800160007000a0037009e0278006b
:1005940004612100848f520003003a000e007800a9
:1005a4006800070003003700a44d80000402e8003f
:1005b400a44d880040802000910e070000027800be
:1005c400e00f5200deff3a0094458000e44d8800bd
:1005d40054408000f44d88000080fa0000000600ba
:1005e4000400fa00100798001e029000c402900054
:1005f400050f780004002f009e0262000400220010
:10060400848f520004003200b44d80000402e800dc
:10061400b44d88001a003700f4ff20001e0f62005a
:10062400f40f20009e027800848f520003003e00e5
:100634001e0090001400070011003700f41f200072
:100644009e027800848f520003003e001e0090003a
:10065400240007000a003700f43f20009e027800bf
:10066400848f520003003e001e009000f00e07002d
:1006740003003700b44d80000402e800b44d880044
:100684000080fa00000006000400fa001007980039
:100694001e029000c4029000050f7800f4ff2000b1
:1006a4001e0f62001e027800e10f520003003200a8
:1006b400e30f520003003200040037000000fe0084
:1006c40006003700330b070004003700b44d8000e8
:1006d4000402e800b44d8800000000000080fa0025
:1006e400000006000400fa00100798001e029000a3
:1006f400c4029000050f7800f4ff20001e0f620072
:100704001e02900014029000840078001e007800fd
:10071400850607001e029000a40290001e02e80055
:1007240085007800040078007f06070000000000c0
:100734000000000000000000000000000080fa003b
:10074400000006000e00fa00600798006e02900098
:10075400c4029000050f780004002f009e0262007e
:1007640004002200848f520004003200b44d800043
:100774000402e800b44d88002e003700f4ff200086
:100784001e0f6200f48f20009e027800848f5200b6
:1007940004003600f49f20009e027800848f5200eb
:1007a40004003600b44d80000402e800b44d880013
:1007b4002000370004802f001e0f420044012a004d
:1007c400140798006e029000c402900004802f0069
:1007d40004824200540798000002eb00440798008a
:1007e4001e02e80004007800d40607000002780026
:1007f400340798001e007800d00607000002780035
:100804002407980000000000000000000000000021
:100814000e82e80084007800c08a20002e0e0700b3
:10082400741b800068026200e00f520001003a006d
:100834008760a8000080fa00000006000000fa00ab
:100844000080fa00000006000000fa002504800081
:100854000404200004826200e00f5200a000320071
:1008640084c0a900044080000402e8000440880019
:10087400044080006f026200044088009a00070070
:100884000440800005002000f6002000070020003e
:10089400860f5200878f5a0091003e0004600100c9
:1008a4000f00370018003700210037002a003700f6
:1008b400330037003c003700450037004e00370056
:1008c40057003700600037006900370072003700b6
:1008d4007b0037007c0037007d0037007e00370046
:1008e400f44a8000e74a8000d64a8000c54a800066
:1008f4008701780006017800850078000000eb008d
:100904008e00070076003700249620001403780038
:10091400054b80000002eb008001eb00060178002b
:100924008500780010002000840007006c00370068
:10093400744b8000674b8000564b8000454b800011
:1009440087017800060178008500780020002000e7
:100954007a00070062003700b44b8000a74b800088
:10096400964b8000854b8000870178000601780053
:100974008500780030002000700007005800370020
:10098400f44b8000e74b8000d64b8000c54b8000c1
:100994008701780006017800850078004000200077
:1009a400660007004e003700344c8000274c80005e
:1009b400164c8000054c8000870178000601780001
:1009c40085007800500020005c00070044003700d8
:1009d400544d8000474d8000364d8000254d8000e9
:1009e40087017800060178008500780080002000e7
:1009f400520007003a003700944d8000874d800074
:100a0400764d8000654d80008701780006017800ee
:100a1400850078009000200048000700300037006f
:100a2400d44d8000c74d8000b64d8000a54d800098
:100a3400870178000601780085007800a000200076
:100a44003e00070026003700144e8000074e800049
:100a5400f64d8000e54d800087017800060178009e
:100a640085007800b0002000340007001c00370027
:100a7400d44c8000c74c8000b64c8000a54c80004c
:100a84008701780006017800850078006000200066
:100a94002a00070012003700144d8000074d800023
:100aa400f64c8000e54c8000870178000601780050
:100ab400850078007000200020000700080037003f
:100ac400e50d070006003700f20d070004003700ab
:100ad400fb0d0700020037000b0e070000000000aa
:100ae4000080fa00000006000a00fa0044812a008f
:100af400040f7800849820001402780014079800ea
:100b0400a49820001402780024079800644c800004
:100b140034079800744c800044079800e1352000a5
:100b24000e007800b30d0700444d80000402e80075
:100b3400444d88000080fa00000006001400fa000a
:100b4400500798006107980072079800030f9800f7
:100b5400140f98005e0290006f0262005407980020
:100b6400de0290000402200005027200540798007f
:100b74005e0290000402420054079800de029000d6
:100b84000460200005027200540798005e02900081
:100b94004222dd00540798005e029000040f7800a2
:100ba4009e02780004f02f0004826200040f780093
:100bb4001e0278004322dd00040f78009e027800b4
:100bc4005e039000f40f200004026300050272002b
:100bd400040f78001e0a9000140798000e0a900073
:100be400240798007e029000340798006e0290005b
:100bf400440798008e007800c08a2000360d070054
:100c0400741b800068026200e00f520001003a0089
:100c14008760a8000080fa00000006000000fa00c7
:100c2400250480000408200004826200e00f5200c2
:100c34000700320084e0a900144e80000402e8009a
:100c4400144e8800144e8000945488008829a8000b
:100c54000080fa00000006000000fa001440800042
:100c6400e00f520005003a00444c8000610262002b
:100c7400e00f5200010032009bff0700444c80004b
:100c8400614262000482fb00144088000080fa0084
:100c9400000006000200fa00000f7800449c2000c7
:100ca4009e02780095029000050a78001e027800e2
:100cb400a4029000449c2000150298001e027800b3
:100cc400b4029000449c200025029800449c20001b
:100cd4008082eb00350298000060fe008829a9009c
:100ce4000002eb00540888000080fa0000000600af
:100cf4000000fa000002eb00944588000002eb00bb
:100d0400544088000002eb00845488000002eb0089
:100d1400945488000002eb00c44a88000002eb00ef
:100d2400d44a88000002eb00e44a88000002eb0089
:100d3400f44a88000002eb00044b88000002eb0038
:100d4400244b88000002eb00344b88000002eb00c7
:100d5400444b88000002eb00544b88000002eb0077
:100d6400644b88000002eb00744b88000002eb0027
:100d7400844b88000002eb00944b88000002eb00d7
:100d8400a44b88000002eb00b44b88000002eb0087
:100d9400c44b88000002eb00d44b88000002eb0037
:100da400e44b88000002eb00f44b88000002eb00e7
:100db400044c88000002eb00144c88000002eb0095
:100dc400244c88000002eb00344c88000002eb0045
:100dd400244d88000002eb00344d88000002eb0033
:100de400444d88000002eb00544d88000002eb00e3
:100df400644d88000002eb00744d88000002eb0093
:100e0400844d88000002eb00944d88000002eb0042
:100e1400a44d88000002eb00b44d88000002eb00f2
:100e2400c44d88000002eb00d44d88000002eb00a2
:100e3400e44d88000002eb00f44d88000002eb0052
:100e4400044e88000002eb00144e88000002eb0000
:100e5400b41c880041e7a90041c7a90040e7a900e4
:100e64004087a9004067a9004047a9004027a9007e
:100e74004007a90040c7a9000080fa00000006004e
:100e84000000fa00845480000402e80084548800be
:100e9400449c20008002eb00050a7800449c20005a
:100ea4001500200015029800449c20002500200015
:100eb40025029800449c200035002000350298004b
:100ec40084548000044b880094548000144e88009d
:100ed4008f60a9008760a9000405800004c0a100f8
:100ee40004d0a10004e0a000040588000002eb0087
:100ef400b41c88009803a8009823a8009843a8006d
:100f040098a3a80040802000c40c0700c08a2000d9
:100f1400c20c070004402000841c8800000000006c
:100f2400851c8000040e20008482620004082000d6
:100f3400848f5200faff3a0014002000941c8800a9
:100f4400a4392000a41c880014802100841988007e
:100f5400d4872100c41988000002eb00041888001b
:100f640004802000441888000401210084188800ab
:100f7400c47f2100c4188800c47f2100041988009c
:100f8400c47f21004419880014002000741b8800c9
:100f940024002000f41a880034002000741a880009
:100fa400040c2000241b8800040c2000a41a8800d0
:100fb400040c2000241a88000002eb00741c880032
:100fc4000002eb00f41b88000002eb00841c880084
:100fd40000000000851c8000040e200004826200d2
:100fe400e00f5200fbff3a008f60a80054fb25007d
:100ff4008408880024f42000640888000002eb00c0
:101004003408880084c0a9008cc0a90011e1a8009c
:10101400d4fb2500940888005462220074088800d8
:1010240084e0a9008ce0a90013e1a8000002eb0011
:10103400a44c880064ee2800b44c88000002eb0045
:10104400c44c880014042000d44c880044062000ba
:10105400e44c88000080fa00000006003600f80026
:10106400809fbe00829fbe00849fbe00869fbe00fc
:10107400889fbe004400f8004200f8000a00fa000d
:101084008760a900954d8000b41c800005027200a1
:10109400944d8800751c80000408200004826200be
:1010a400e00f520024003200741c800061026200d0
:1010b400e00f52000f003a00644d80000402e80083
:1010c400644d8800e13820000e007800280280007a
:1010d40019028000ec0b070019028800280288001e
:1010e4002e029000a44a88001e029000b44a880090
:1010f40010003700744d80000402e800744d88002d
:10110400e13820000e0078002802800019028000d7
:10111400dd0b070019028800280288000e00780001
:101124002802800019028000dafe070019028800f4
:10113400280288009603a900f51b800004082000fb
:1011440004826200e00f52000b003200844d8000e4
:101154000402e800844d8800e1372000408020002c
:101164002802800019028000aa0b070019028800d7
:10117400280288009623a900741b8000680262007c
:10118400e00f520014003a00c08a200028028000b8
:10119400190280009a0b07001902880028028800af
:1011a40000027800e00f52000b003200e13620000c
:1011b400c08a20002802800019028000f70b070073
:1011c40019028800280288009643a900d44d8000a3
:1011d4000402e800d44d8800b51c800004022000fd
:1011e40004826200e00f520009003200054e8000c4
:1011f400b41c800005027200044e8800344d800047
:101204000402e800344d880096a3a90008003700c2
:10121400451780000400220004826200e00f52009f
:1012240002003200e9a2a90001003700e9a2a800e7
:10123400d51c800004f02f0084826200264d8000bb
:1012440004f02f0004026300848f52000a00360069
:10125400254d8000f40f200004826200244d880094
:10126400254d8000d61c800004f02f00040263008a
:1012740004824200244d8800d51c8000f40f200015
:1012840084826200264d8000f40f20000402630073
:10129400848f52000a003600254d800004f02f0090
:1012a40004826200244d8800254d8000d61c8000f5
:1012b400f40f20000402630004824200244d8800dd
:1012c4000080fa004200f9004400f9004f04be0017
:1012d4004f03be004f02be004f01be004f00be00d0
:1012e4003600f900004006000e00fa00500798008e
:1012f4006107980004012000040f78006e0290003a
:10130400140798005e029000e00f520003003200c0
:101314000082eb0024079800020037000002eb0073
:1013240024079800e13420000e007800b10b070078
:10133400544d80000402e800544d88000080fa00f7
:10134400000006000000fa00a400200034528800c7
:1013540001000700feff37000000fa00345280004d
:10136400f40f520012003200f40f520003003e004a
:10137400ea0f52000800320058003700250320000d
:10138400850f520019003200c5032000850f52005a
:101394003d00320051003700d60007008849a900fb
:1013a4008809a80044012000345288004e00370008
:1013b4008809a800e3020700080037004c00070072
:1013c400ab00070095538000f4182000848f52006e
:1013d4000200360024032000345288003452800076
:1013e400f40f5200f5ff32003f0037000002eb001b
:1013f400f45288000002eb00045388000002eb0062
:10140400145388000002eb00245388000002eb0010
:10141400345388000002eb00c45388000002eb0040
:10142400e45388000002eb00d4538800a498200001
:101434008002eb00050a78008809a9000d00370036
:101444002b00070064538000e00f520003003200b9
:101454000002eb0064538800eb010700a49820000d
:1014640014027800e00f520002003200c40320008e
:10147400345288003552800024032000848f5200a7
:10148400efff3200180037008809a8000e0037006b
:101494001700070064538000e00f5200030032007d
:1014a4000002eb0064538800d7010700449c20002d
:1014b4001402780061026200e00f52000200320060
:1014c400240320003452880035528000c4032000d5
:1014d400848f5200eeff320003003700c403200063
:1014e40034528800000000000080fa00000006006a
:1014f4000000fa00befb0700449c20009402780020
:101504000400280004826200e00f5200050032004b
:101514000002eb00445288006022b8005452880054
:1015240065528800444c800062026200e00f520061
:10153400010032008a69a800444c80006102620004
:10154400e00f520002003200e982a90001003700d6
:10155400e982a800350480000404200004826200ab
:10156400e00f52004000320086c0a90034528000cf
:10157400f40f520003003a00945380000402e80080
:1015840094538800a45380006a024200a453880044
:10159400a5538000743e2000848f5200030036005f
:1015a4000002eb00a453880067010700f452800096
:1015b400444b880004538000544b8800145380002b
:1015c400644b880004528000844b880024528000bd
:1015d400944b8800f4518000a44b8800145280007e
:1015e400b44b8800e44f8000c44b8800c44e800094
:1015f400d44b880084538000e44b880074538000eb
:10160400f44b8800c4538000044c8800d4538000f9
:10161400144c8800e4538000244c8800b4538000a8
:101624000402e800b4538800b55380003406200057
:10163400848f5200080036000002eb00b453880087
:10164400c4538000e00f520003003200c4538000f2
:101654000402e900c4538800c4538000e90f520017
:10166400010036008a89a8000080fa000000060004
:101674000000fa00945380004422de0063026200fa
:10168400050020003600200007002000860f5200cd
:10169400878f5a0015003e000460010003003700e4
:1016a40006003700090037000c003700c4e2a80028
:1016b400e982a800e9a2a8000c003700c4e2a9004e
:1016c400e982a800e9a2a80008003700c4e2a90042
:1016d400e982a900e9a2a80004003700c4e2a90035
:1016e400e982a900e9a2a900000000000080fa0034
:1016f400000006000e00fa00881f7800a49820005d
:101704008002eb00050a7800849820008002eb0038
:10171400050a78000002eb00644c88000002eb002c
:10172400744c88000002eb00044d88000002eb00ba
:10173400f44c880074002000144d8800e4048000f8
:101744000400a0000410a0000420a000e404880009
:101754008220a8008e00a800340580000400a100a7
:101764000410a0000420a000340588008260a900b1
:101774009080a800046025000416880074002200ec
:10178400341688000002eb006416880004f0200080
:101794009416880034002000f4168800c41c240029
:1017a400241788000002eb00a408880086a0a90082
:1017b40054f92d00f4088800440d2300e40888003f
:1017c4000002eb00c408880086c0a900d4f92d00eb
:1017d4000409880016c0b30001cab30004a821009c
:1017e400650020000268290083092000000022000f
:1017f40035020700a2fd0700f4ff2700841f7800cc
:101804008083eb00060028008002eb000082eb00de
:1018140080c1eb000001eb0031402000209d20003e
:10182400120507008f87e900f4ff2700841f780062
:101834008083eb00060028008002eb000082eb00ae
:1018440080c1eb000001eb0031402000609f2000cc
:10185400060507008f87e900f4ff2700841f78003e
:101864008083eb0006002800052c2100044521009c
:1018740080c1eb000001eb0001202000a0a12000aa
:10188400fa0407008f87e900066829008709200009
:1018940004482800e501200003002a000001eb00b1
:1018a400f153200020c0b300dd060700b4ff2d0073
:1018b40044158800f4cf270004158800c4bf26000f
:1018c4001415880034f52f0024158800d4de2e006a
:1018d400341588008560a900a1e2a800000000007a
:1018e400250480000480200004826200e00f52007e
:1018f400fbff3200a1e2a90005148000141480004b
:1019040084824200241480008482420034148000c3
:101914008482420044148000848242005414800073
:101924008482420064148000848242007414800023
:1019340004824200f4508800f55080008614800030
:101944009414800004034300a4148000040343009f
:10195400b414800004034300c4148000040343004f
:10196400d414800004034300e414800004034300ff
:10197400f41480000402430004824200f4508800fe
:10198400a0a1200094050700a0a12000d105070014
:1019940000027800e00f5200010032008869a800bc
:1019a400a0a12000d905070000027800e00f520032
:1019b400010032008869a800f4c1270004158800da
:1019c40004bc26001415880074042e002415880015
:1019d400242e2e00341588008560a900a1e2a800f9
:1019e400a022a8000e01780071002000000220004f
:1019f400980307006e0490000e0078002c00070086
:101a040000027800840f540025003a000e0278008a
:101a14001402be0074528800855288000e027800b9
:101a2400640242005403be004402be0020a520000c
:101a34000498be000690be00765280008752800053
:101a44000082eb008082eb00840f5300858f5b00e3
:101a54000b00320024a520003400be002401be0087
:101a6400f4ff2f00f5ff2f000403be000400e10083
:101a74000588e1000690e1000798e10008003a00bb
:101a84006022b800745288008552880020a5200086
:101a94006022b8006033b8000498be000690be000f
:101aa400a022a9004f0478000080fa00000006007c
:101ab4000400fa00100798001e029000140f78002a
:101ac4001e0290000482e800140798001e02900091
:101ad400140278001e0f42001e0290000482e800e7
:101ae400140798001e029000140278001e0f420092
:101af4001e0290000482e800140798001e02900061
:101b0400140278001e0f42001e0290000482e800b6
:101b1400140798001e029000140278001e0f420061
:101b24001e0290000482e800140798001e02900030
:101b3400140278001e0f42001e0278000400780090
:101b44000080fa00000006000e00fa00881f7800ea
:101b5400e4a4200004007800d5ff07000002780008
:101b6400d4528800e4528000e00f52001200320088
:101b7400e4a4200004017800710020000002200089
:101b8400960207000e017800710020000002200078
:101b9400300307006e0490000e007800c4ff0700b5
:101ba40000027800840f540014003a000002eb0095
:101bb400e452880011003700e4a4200004017800f6
:101bc4007100200010022000840207000e0178003a
:101bd40071002000100220001e0307006e04900014
:101be4000e007800b2ff070000027800840f540052
:101bf40002003a0014002000e45288004f047800e8
:101c04000080fa00000006000000fa00001920001d
:101c140001002000220a0700d082a90021c0b300dd
:101c24000000eb00c90607000002be0004027800b1
:101c3400d44f8800d44f8000744e8800d082a8000e
:101c4400d042a900cb22a900041480004422dd0064
:101c5400b44e8800b44e8000644e8800209d20005d
:101c6400dd040700609f2000db0407008929a90028
:101c7400a51680000410200004826200e00f5200c8
:101c840005003a00a516800004802000048262004a
:101c9400e00f520016003a00e822a8008929a800a3
:101ca400a51680000410200004826200e00f520098
:101cb40003003200d45380000402e800d4538800a7
:101cc400a51680000480200004826200e00f520008
:101cd40003003a00e45380000402e800e45388005f
:101ce400401f200001002000ed090700e822a900a0
:101cf400454c80000420200004826200e00f520062
:101d040018003200cb02a80040012000010020008e
:101d1400e3090700cb02a9007452800085528000b9
:101d240061024200e0824a007452880085528800b1
:101d3400445280000402e80044528800f4528000b7
:101d44000402e800f4528800045380000402e8000e
:101d540004538800145380000402e80014538800dc
:101d64000600370014538000e00f520003003200d5
:101d7400145380000402e9001453880024a52000b1
:101d84003400be002401be00140020000500200021
:101d94006033b8000002420081824a0002034b0013
:101da40083834b0020a520000498be000690be004b
:101db400545280006552800061024200e0824a0071
:101dc4005452880065528800245380000402e800bd
:101dd4002453880024538000f00f5200080036007a
:101de4000002eb0024538800f4528000e00f5200fc
:101df40003003200f45280000402e900f452880027
:101e0400345380000402e8003453880035538000c2
:101e1400040f2000848f5200080036000002eb00fb
:101e24003453880004538000e00f52000300320052
:101e3400045380000402e900045388000553800021
:101e440034062000848f5200010036008a09a8005d
:101e5400f552800014032000848f520001003600e4
:101e64008a29a80014538000ee0f520001003600a6
:101e74008a49a800454c80000420200004826200a6
:101e8400e00f520026003a00454c80000410200068
:101e940004826200e00f520011003200c54e80003f
:101ea400f45180006200200085007800040078006e
:101eb4005209070000027800f4518800e54f8000c1
:101ec400145280006200200085007800040078002d
:101ed4004a090700000278001452880010003700f5
:101ee400c54e800004528000620020008500780006
:101ef40004007800410907000002780004528800b9
:101f0400e54f8000245280006200200085007800a4
:101f14000400780039090700000278002452880080
:101f240008000700449c200014027800620262004a
:101f3400e00f520001003200c70807000080fa00d9
:101f4400000006000000fa00d602a90040012000ab
:101f54000100200052090700d602a8000080fa0000
:101f640000000600849fbe000000fa00000000008c
:101f7400000000000000000000000000000000005d
:101f8400000000000000000000000000000000004d
:101f940000000000a022a900cb22a800000000003d
:101fa400000000000000000000000000000000002d
:101fb400000000000000000000000000000000001d
:101fc40000000000d042a800444c80004822de00fb
:101fd400614262000482fb0054538800b44a8000ca
:101fe400445388001400200064538800a50880002e
:101ff400e4ab2000848f520008003e0035048000ca
:102004000402200004826200e00f520003003a0040
:10201400745380000402e8007453880086a0a90069
:102024000002eb00a40888008600a900e802a900c9
:102034000080fa004f02be00004006003600f8009f
:10204400809fbe00829fbe00849fbe00869fbe000c
:102054000000fa008880a9003504800004022000f2
:1020640004826200e00f520003003a00a4088000da
:10207400f40f520007003600845380000402e80085
:1020840084538800c45380000402e800c4538800c9
:10209400acff07000080fa004f03be004f02be00f1
:1020a4004f01be004f00be003600f900004006009c
:1020b4000000fa0000000000000000000000fe0024
:1020c4000080fa00004006000c00fa00000f7800bf
:1020d40012079800230798003407980045079800d2
:1020e400214f9800364f98002e4890008ceab70094
:1020f4003e4890008deab7001e02780074548800b0
:102104008dcabf006033b8001e029000ae0290007a
:102114003e019000ce01900001022b003c06070016
:102124000080fa00000006001000fa006007980022
:1021340071079800745480008402d1006e029000ec
:10214400848f5200790036007e0290004822de001f
:10215400644798007e029000744798006e029000d5
:1021640004024200440798004e0290004822de0018
:10217400244f98004e029000344f98001400200021
:10218400040f7800d4a8200014427800044078009a
:102194005d06070000027800040f7800d4a8200030
:1021a40014427800044078007806070000027800a2
:1021b4001e0f7200d5a8200095427800c4a8200004
:1021c400144278008540780004407800b106070086
:1021d400000278001e0f7200441080004f22de00bf
:1021e400044278000482fb00240798000002eb00fc
:1021f4001407980023003700d4a820001442780064
:102204000440780013070700000278001e0f7200d4
:10221400d4a8200014427800044078003a0607004d
:1022240000027800040f7800d4a82000144278003b
:102234000440780055060700000278001e0f720063
:10224400d5a8200095427800c4a820001442780044
:1022540085407800044078008e060700000278006c
:102264001e0f7200441080004f22de0004427800ea
:102274000482fb00240798001e0290000402e80078
:10228400140798002e029000e00f52000400320060
:102294009e029000840c2000848f5200d6ff3600ea
:1022a400d4a8200014427800844078002e4890007e
:1022b40078060700000278001e0f7200d4a82000e0
:1022c40014427800844078003e489000710607006c
:1022d400000278001e0f7200d4a820001442780077
:1022e400844078007e4090006a060700000278006f
:1022f4001e0f7200d4a82000144278008440780095
:102304006e40900063060700000278001e0f720002
:10231400d4a820001442780004407800cd060700b9
:10232400000278001e0f7200020037000082eb00ea
:10233400040f78000080fa00000006000e00fa0086
:1023440060079800745480008402d1006e029000eb
:10235400848f52008c0036006e029000040242000a
:10236400440798004e0290004822de00244f980053
:102374004e029000344f9800d4a8200014427800f4
:1023840004407800e005070000027800040f78009c
:10239400d4a820001442780004407800fb0507000c
:1023a400000278001e0f7200d5a820009542780024
:1023b400c4a82000144278008540780004407800c6
:1023c40034060700000278001e0f720044108000db
:1023d4004f22de00044278000482fb003407980098
:1023e4000002eb002407980023003700d4a8200043
:1023f4001442780004407800960607000002780032
:102404001e0f7200d4a82000144278000440780003
:10241400bd05070000027800040f7800d4a820004e
:102424001442780004407800d805070000027800c0
:102434001e0f7200d5a8200095427800c4a8200081
:1024440014427800854078000440780011060700a3
:10245400000278001e0f7200441080004f22de003c
:10246400044278000482fb00340798002e02900096
:102474000402e800240798003e029000e00f520096
:1024840004003200ae029000840c2000848f5200bd
:10249400d6ff3600d4a82000144278008440780087
:1024a4002e489000fb050700000278001e0f720002
:1024b400d4a8200014427800844078003e4890005c
:1024c400f4050700000278001e0f7200d4a8200053
:1024d4001442780004407800cd050700000278001b
:1024e4001e0f7200d5a8200095427800c4a82000d1
:1024f400144278000404a000854078000440780069
:10250400e4050700000278001e0f7200d4a8200022
:102514001442780004407800150607000002780091
:1025240024479800d4a8200014427800044078007e
:1025340069060700000278001e0f7200d4a820006c
:10254400144278000440780009060700000278006d
:1025540034479800d4a8200014427800044078003e
:102564007f060700000278001e0f7200d4a8200026
:102574001442780004407800360607000002780010
:102584001e0f7200060037000082eb00040f780073
:102594000042eb00244798000042eb0034479800c7
:1025a4003e4290000482fb00440798004e029000d3
:1025b4004822dd00440798002e4290000482fb006c
:1025c400ce02900004824200440798004e0290001c
:1025d400040078000080fa00000006001400fa00ed
:1025e40070079800010f9800120f98000e0a9000cf
:1025f400e00f5200950032000e0a9000f00f5200d6
:102604000200360004012000040f98007454800076
:10261400c522de007e029000848f520089003600bd
:102624007e0290004522dd00440798004e0290008f
:102634004822de00244f98004e029000344f980048
:10264400d4a8200014427800044078002e05070026
:1026540000027800040f7800d4a820001442780007
:102664000440780049050700000278001e0f72003c
:10267400d5a8200095427800c4a820001442780010
:102684008540780004407800820507000002780045
:102694001e0f7200441080004f22de0004427800b6
:1026a4000482fb00340798000002eb002407980022
:1026b40023003700d4a82000144278000440780096
:1026c400e4050700000278001e0f7200d4a8200061
:1026d40014427800044078000b05070000027800db
:1026e400040f7800d4a82000144278000440780035
:1026f40026050700000278001e0f7200d5a82000ee
:1027040095427800c4a820001442780085407800df
:10271400044078005f050700000278001e0f720075
:10272400441080004f22de00044278000482fb0043
:10273400340798002e0290000402e8002407980051
:102744003e029000e00f520004003200ae029000fe
:10275400840c2000848f5200d6ff3600d4a82000b9
:1027640014427800844078002e4890004905070000
:10277400000278001e0f7200d4a8200014427800d2
:10278400844078003e48900042050700000278002b
:102794001e0f72000002eb00140798001e003700a1
:1027a4001e029000040242009e0a9000048242002d
:1027b400140278004822de00444f98001e02900064
:1027c400040242009e0a900004824200140278002f
:1027d400544f9800d4a82000144278008440780014
:1027e4005e4890002b050700000278001e0f72005f
:1027f400d4a8200014427800844078004e48900009
:1028040024050700000278001e0f72001e029000cb
:102814000402e800140798009e0290000e0a90003b
:10282400848f5200deff3900d4a8200014427800bf
:102834000440780087050700000278001e0f72002c
:10284400020037000082eb00040f78000080fa00d9
:10285400000006001400fa0070079800010f9800a9
:10286400120f98000e0a9000e00f5200fd00320093
:102874000e0a9000f00f52000200360004012000fe
:10288400040f980074548000c522de007e0290007c
:10289400848f5200ed0036007e0290004522dd0058
:1028a400440798004e0290004822de00244f98000e
:1028b4004e029000344f9800d4a8200014427800af
:1028c400044078009004070000027800040f7800a8
:1028d400d4a820001442780004407800ab04070018
:1028e400000278001e0f7200d5a8200095427800df
:1028f400c4a8200014427800854078000440780081
:10290400e4040700000278001e0f720044108000e7
:102914004f22de00044278000482fb003407980052
:102924000002eb002407980023003700d4a82000fd
:10293400144278000440780046050700000278003d
:102944001e0f7200d4a820001442780004407800be
:102954006d04070000027800040f7800d4a820005a
:1029640014427800044078008804070000027800cc
:102974001e0f7200d5a8200095427800c4a820003c
:10298400144278008540780004407800c1040700b0
:10299400000278001e0f7200441080004f22de00f7
:1029a400044278000482fb00340798002e02900051
:1029b4000402e800240798003e029000e00f520051
:1029c40004003200ae029000840c2000848f520078
:1029d400d6ff3600d4a82000144278008440780042
:1029e4002e489000ab040700000278001e0f72000e
:1029f400d4a8200014427800844078003e48900017
:102a0400a4040700000278001e0f7200d4a820005e
:102a140014427800044078007d0407000002780026
:102a24001e0f7200d5a8200095427800c4a820008b
:102a3400144278000404a000854078000440780023
:102a440094040700000278001e0f72000002eb00dd
:102a5400140798003a003700d4a8200014427800e4
:102a640004407800c204070000027800444f980034
:102a7400d4a820001442780004407800160507000a
:102a8400000278001e0f7200d4a8200014427800bf
:102a940004407800b604070000027800544f980000
:102aa400d4a8200014427800044078000a050700e6
:102ab400000278001e0f72001e0290000402420001
:102ac4009e0a9000848242005e4a90000482fb00c9
:102ad400840a78001e029000040242009e0a9000bc
:102ae400848242001e029000040242001e0b9000e9
:102af40004024300140278004822dd00840a7800ae
:102b04001e029000040242009e0a90008482420049
:102b14001e029000040242001e0b900004024300b7
:102b2400140378004e4a90000482fb000402430020
:102b3400840a78001e0290000402e800140798003a
:102b44000e0a90008402e9001e029000848f520055
:102b5400c1ff3e00d4a8200014427800044078004d
:102b64008304070000027800444f9800d4a8200092
:102b74001442780004407800d7040700000278006b
:102b84001e0f7200d4a8200014427800044078007c
:102b94007704070000027800544f9800d4a820005e
:102ba4001442780004407800ed0407000002780025
:102bb4001e0f72001e029000040242009e0a900042
:102bc400848242005e4a90000482fb00840a7800fa
:102bd4001e029000040242009e0a90008482420079
:102be4001e029000040242001e0b900004024300e7
:102bf400140278004822dd00840a78001e02900046
:102c0400040242009e0a9000848242001e02900048
:102c1400040242001e0b90000402430014037800d7
:102c24004e4a90000482fb0004024300840a7800a8
:102c3400d4a82000144278000440780085040700da
:102c4400000278001e0f7200060037000082eb00bd
:102c5400040f78000042eb00444f98000042eb0060
:102c6400544f98000080fa00000006001200fa0099
:102c7400100798002107980032079800034f980026
:102c8400540798006507980076079800070f980086
:102c94000002eb00040f78001e0390006022b800cd
:102ca400048bbe001e0290008002eb0025029800f7
:102cb4001e0290008002eb00350298001e02900074
:102cc400ae029000450298001e029000be029000e1
:102cd400550298000e4a9000ef4f52000d00360046
:102ce4001e02900005002800650298001e02900054
:102cf4008002eb00750298001e0290000500280077
:102d0400050a98001e0290008002eb00150a980044
:102d14001f0037000e4a90000482fb000404b00038
:102d24004222dd00040f78001e00780083fd0700b6
:102d340000027800840278001e0290007502980058
:102d44001e02e800040078007cfd07000002780001
:102d54009e029000e40298001e82e80004007800bd
:102d640076fd070000027800840278001e029000bd
:102d7400150a98009e0278006382420004007800dd
:102d84006efd0700000278009e029000840a9800fd
:102d94001e029000de029000250a98001e02900098
:102da400ee029000350a98001e029000fe02900088
:102db400550a98001e0290008e0a9000650a980039
:102dc4001e0290008002eb00750a98001e0290001b
:102dd4008002eb00051298001e029000ceba970004
:102de400151298000080fa00000006001000fa0096
:102df400100798002107980032079800034f9800a5
:102e04005407980065079800760798000002eb00c5
:102e1400040f78001e0290008002eb002502980047
:102e24001e029000de029000350298001e029000ff
:102e3400ee029000450298001e029000fe029000ef
:102e4400550298001e029000ae02900065029800a0
:102e54001e029000be029000750298000e4a900077
:102e6400e74f52000d0036001e02900005002800b6
:102e7400050a98001e0290008002eb00150a9800d3
:102e84001e02900005002800250a98001e029000ea
:102e94008002eb00350a98001f0037000e4a9000ac
:102ea4000482fb000405b0004222dd00040f780018
:102eb4001e00780021fd07000002780084027800db
:102ec4001e029000150a98001e02e8000400780013
:102ed4001afd0700000278009e029000840a980000
:102ee4001e82e8000400780014fd07000002780048
:102ef400840278001e029000350a98009e02780031
:102f040063824200040078000cfd07000002780090
:102f14009e029000a40a98000080fa0000000600b7
:102f24000400fa00100798001e0290007403900039
:102f34001e029000e40290001e0290001402780029
:102f44000601780085007800040078001605070063
:102f540000027800040f78001e029000940a90008a
:102f64001e029000040a9000050178008400780095
:102f74001e007800f704070000027800040f7800b0
:102f84001e029000b40a90001e029000240a9000d1
:102f940005017800840078001e007800ed04070025
:102fa40000027800040f78001e02900024029000b2
:102fb400e00f520003003a001e029000d402900079
:102fc400050f78001e0290009e02780015029800fa
:102fd4000080fa00000006000400fa0010079800c0
:102fe4001e029000140b90001e029000840a9000b0
:102ff4001e029000240290000601780085007800eb
:1030040004007800d304070000027800040f78005d
:103014001e029000f40290001e02900064029000d0
:1030240005017800840078001e007800c9040700b8
:1030340000027800040f78001e029000d402900071
:103044001e0290004402900005017800840078007c
:103054001e007800d404070000027800040f7800f2
:103064001e0290009e027800350298000080fa004b
:10307400000006000400fa00000f78001107980011
:103084001e027800b40290001e029000848f520049
:10309400030031001e027800b40290001507980066
:1030a4001e027800c40290001e029000848f520019
:1030b400030036001e027800c40290001507980031
:1030c4001e0278009e029000050a78000080fa0033
:1030d400000006000200fa00000f78001e027800cb
:1030e400b40290001e027800240a9000848f5200db
:1030f4000200360014002000010037000002eb003b
:10310400040078000080fa00000006000200fa00c3
:10311400000f78001e027800b40290001e027800ae
:10312400340a9000848f5200020031001400200001
:10313400010037000002eb00040078000080fa0070
:10314400000006000400fa00100798001e02900018
:10315400d40a90001e029000440a90000001eb0083
:1031640085007800040078007a04070000027800e3
:10317400040f78001e029000640a90009e0f520013
:10318400030036001e029000e40a9000050f780048
:1031940004f02f009e0252001e029000440a900088
:1031a400848f5200040036001e029000440a9000ee
:1031b4001e0f42000200370004f02f00040f7800b5
:1031c4001e029000340290009e0f5200060036004a
:1031d4001e029000740a90008402e8001e0290000f
:1031e400750a9800090037001e029000740a9000c6
:1031f400e00f5200050032001e029000740a900095
:103204008402e9001e029000750a98001e029000d4
:10321400f40a90001e02900014129000848f520051
:103224000f0039001e029000f40a90001e02900064
:103234001412900004024200848f520006003900e8
:103244001e029000141290000402420084027800ce
:103254001e029000750a9800140020000100370037
:103264000002eb00040078000080fa000000060071
:103274000400fa00100798001e029000d40a90007f
:103284001e029000440a90000001eb0085007800c3
:10329400040078002f04070000027800040f78006f
:1032a4001e029000640a90009e0f52000300360034
:1032b4001e029000e40a9000050f78001e029000a0
:1032c400440a90009e0f5200040036001e02900033
:1032d400440a90001e0f5200020037000002eb0067
:1032e400040f78001e029000340290009e0f5200da
:1032f400060031001e029000041290008402e800cf
:103304001e02900005129800090037001e0290006a
:1033140004129000e00f5200050032001e029000db
:10332400041290008402e9001e0290000512980025
:103334001e029000841290001e029000141290004d
:10334400848f52000f0039001e02900084129000f6
:103354001e0290001412900004024200848f520056
:10336400060039001e02900014129000040242006c
:10337400840278001e0290000512980014002000b8
:10338400010037000002eb00040078000080fa001e
:10339400000006000000fa00a21b28000101200022
:1033a400000120008dfc0700a21b28000101200061
:1033b4001001200089fc0700a21b28000101200045
:1033c4002001200085fc0700a21b28000101200029
:1033d4003001200081fc0700a21b2800010120000d
:1033e400400120007dfc0700a21b280001012000f1
:1033f4005001200079fc0700a21d280001012000d3
:103404006001200075fc0700a21d280001012000b6
:103414007001200071fc07000080fa000000060023
:103424001400fa00404798003107980042079800ba
:10343400530798006407980075079800060f9800d2
:10344400170f98003e029000f401b300340798006f
:103454000e0b90009e0b9000463add00ca32de004f
:10346400850272004632dd006e019000fe0190007c
:103474000400be00aef307000002be00048fbe00cd
:1034840004202000050020001e03be00840f53000a
:10349400858f5b0003003e0014002000f453880075
:1034a4003200370034802000050020001e03be00d7
:1034b400840f5300858f5b000d003e004400200004
:1034c400f45388001e02be004e2bdd004222de00b3
:1034d40004027300c22ade00048fbe00be02900004
:1034e400e4ff2f0004826200340798001f003700b5
:1034f400f4002200050020001e03be00840f5300c8
:10350400858f5b000d003e0004012000f453880009
:103514001e02be004c2bdd004422de0004027300b8
:10352400c42ade00048fbe00be029000d4ff2f0028
:1035340004826200340798000c0037000404200061
:10354400f45388001e02be004a2bdd004622de0032
:1035540004027300c62ade00048fbe00be0290007f
:10356400c4ff2f000482620034079800041c20006a
:10357400050020001e03be00840f5300858f5b00ee
:1035840008003600f45380004322dd00f453880021
:10359400be02900034fe2f000482620034079800bb
:1035a4005700370004182000050020001e03be0049
:1035b400840f5300858f5b0009003600f4538000ac
:1035c4006722b90004027800f4538800be02900018
:1035d40074fe2f000482620034079800480037000c
:1035e40004142000050020001e03be00840f5300b5
:1035f400858f5b0009003600f45380006622b90011
:1036040004027800f4538800be029000b4fe2f0038
:103614000482620034079800390037000410200047
:10362400050020001e03be00840f5300858f5b003d
:1036340009003600f45380006522b90004027800c2
:10364400f4538800be029000f4fe2f00048262004e
:10365400340798002a003700040c200005002000dd
:103664001e03be00840f5300858f5b0008003600e4
:10367400f45380004222dd00f4538800be0290001f
:1036840034ff2f0004826200340798001c003700c6
:1036940004082000050020001e03be00840f530010
:1036a400858f5b0009003600f45380006322b90063
:1036b40004027800f4538800be02900074ff2f00c7
:1036c40004826200340798000d00370004042000cf
:1036d400050020001e03be00840f5300858f5b008d
:1036e40007003600f453800004024200f4538800bb
:1036f400be029000b4ff2f000482620034079800d9
:10370400f45380004222dd00f45388004e429000be
:10371400e14f520004003a003e0290001411880068
:103724005e039000061188004e429000e24f520062
:1037340004003a003e029000441188005e039000a9
:10374400361188000080fa00000006000c00fa0020
:1037540040079800214f98000042eb00044f780086
:103764002e4a9000e14f520054003a008500a9000f
:103774004e029000241188000002eb0034079800e8
:10378400180037003e0290000402e8003407980055
:10379400f4538000be029000848f52000300360070
:1037a40034c0b300044f78000e00370005118000c8
:1037b4000404200004826200e00f5200030032007f
:1037c40044c0b300044f78000600370004118000a1
:1037d40062026200e00f520002003a0014c0b3001b
:1037e400044f78001e427800e04f5200e5ff32009b
:1037f400200037003e0290000402e80034079800dd
:10380400f4538000be029000848f520003003600ff
:1038140034c0b300044f780016003700051180004f
:103824000404200004826200e00f5200030032000e
:1038340044c0b300044f78000e0037002504800014
:103844000410200004826200e00f520003003200e2
:1038540024c0b300044f7800060037000411800030
:1038640061026200e00f52000200320024c0b30083
:10387400044f78001e427800e14f5200ddff320011
:103884001e427800e24f520005003a0024118000e5
:10389400050020001407980025079800070037004a
:1038a4000400200015112100140798002507980032
:1038b400045480000402e800045488002e4a900056
:1038c400e24f52004d003a008740a9004e0290009a
:1038d400541188000002eb003407980018003700e8
:1038e4003e0290000402e80034079800f45380007c
:1038f400be029000848f52000300360034c0b3002f
:10390400044f78000e0037003511800004042000b5
:1039140004826200e00f52000300320044c0b3008e
:10392400044f780006003700341180006202620000
:10393400e00f520002003a0014c0b300044f7800b4
:103944001e427800e04f5200e5ff320019003700b4
:103954003e0290000402e80034079800f45380000b
:10396400be029000848f52000300360034c0b300be
:10397400044f78000f003700351180000404200044
:1039840004826200e00f52000300320044c0b3001e
:10399400044f7800070037003504800004402000fd
:1039a40004826200e00f52000200320024c0b3001f
:1039b400044f78001e427800e14f5200e4ff3200c9
:1039c4001e427800e24f520005003a005411800074
:1039d4000500200014079800250798000700370009
:1039e40004002000151121001407980025079800f1
:1039f400145480000402e800145488001e0290004d
:103a0400ae0290000400be000080fa000000060030
:103a14001400fa00404798003107980042079800c4
:103a2400530798006407980075079800060f9800dc
:103a3400170f98004e019000de0190006e00900078
:103a4400fe0090003af207000002be00048fbe00a0
:103a54001e0278004422dd00345488006e02900077
:103a6400fe02900052cd2d00230320000400be006e
:103a74002ff207000002be001e1f12001e971a003c
:103a84000082eb008082eb001e0f42005e974a002a
:103a94001e03be001400200005002000840f530004
:103aa400858f5b0003003e002400200005002000f9
:103ab400048fbe00f4ff2f00050020001e03be008b
:103ac400840f5300858f5b00030036002400200020
:103ad40005002000048fbe004e429000e04f5200cb
:103ae400030032004e429000e14f520004003a00bd
:103af400be029000351088001e0278002410880051
:103b04000080fa00000006000600fa004047980012
:103b14000002eb00140798004e429000e04f520060
:103b2400030032004e429000e14f520013003a006d
:103b34000002eb00040f78000b0037001e0fe800b2
:103b4400345480009e027800848f520006003600b0
:103b54000410200014079800245480000402e80094
:103b64002454880005003700451080000400240018
:103b740004826200e00f5200f0ff3a001e0290003f
:103b8400040078000080fa00000006000600fa0035
:103b9400404798000002eb00140798004e42900042
:103ba400e04f5200030032004e429000e14f5200b9
:103bb40013003a000602a8000002eb00040f78008c
:103bc4000b0037001e0fe800345480009e0278007a
:103bd400848f520006003600042020001407980049
:103be400245480000402e8002454880004003700b0
:103bf4003410800061026200e00f5200f1ff3a00cd
:103c04001e029000040078000080fa000000060004
:103c14000600fa00404798000002eb0014079800e1
:103c24004e429000e04f5200030032004e4290009a
:103c3400e14f520013003a000622a8000002eb00f4
:103c4400040f78000b0037001e0fe8003454800086
:103c54009e027800848f5200060036000440200043
:103c640014079800245480000402e80024548800b7
:103c7400040037003410800062026200e00f52003a
:103c8400f1ff3a001e029000040078000080fa0060
:103c9400000006000600fa004047980051479800cb
:103ca4000002eb00140798005e429000e04f5200bf
:103cb400030032005e429000e14f520028003a00b7
:103cc4004e4290000482fb00141088000002eb00b6
:103cd400040f78000c0037001e0fe80034548000f5
:103ce4009e027800848f5200070036000480200072
:103cf40014079800245480000402e8002454880027
:103d0400000000001100370045108000040024006a
:103d140004826200e00f5200efff32000b00370014
:103d24001e0fe800345480009e027800848f5200f5
:103d340006003600048020001407980024548000f4
:103d44000402e80024548800050037004510800070
:103d54000400240004826200e00f5200f0ff3a00e5
:103d64001e029000040078000080fa0000000600a3
:103d74000600fa00404798000002eb001407980080
:103d84004e429000e04f5200030032004e42900039
:103d9400e14f52002b003a000662a8000002eb003b
:103da400040f78000c0037001e0fe8003454800024
:103db4009e027800848f5200070036000400210020
:103dc40014079800245480000402e8002454880056
:103dd4000000000010003700341080006802620008
:103de400e00f5200f0ff3a000b0037001e0fe8000e
:103df400345480009e027800848f520006003600fe
:103e04000400210014079800245480000402e800f0
:103e140024548800040037004410800062026200c9
:103e2400e00f5200f1ff32001e029000e00f52003a
:103e340004003a0005108000f40f200004826200a0
:103e4400140798001e029000040078000080fa0015
:103e5400000006000600fa00404798000002eb004c
:103e6400140798004e429000e04f520003003200c5
:103e74004e429000e14f520013003a000642a8005f
:103e84000002eb00040f78000b0037001e0fe8005f
:103e9400345480009e027800848f5200060036005d
:103ea4000400220014079800245480000402e8004f
:103eb4002454880004003700341080006402620037
:103ec400e00f5200f1ff3a001e0290000400780057
:103ed4000080fa00000006000600fa00404798003f
:103ee4000002eb00040f78000002eb0014079800b6
:103ef4004e429000e04f5200030032004e429000c8
:103f0400e14f520012003a0006a2a9000682a8005e
:103f14000b0037001e0fe800345480009e02780026
:103f2400848f520006003600040024001407980011
:103f3400245480000402e80024548800040037005c
:103f44003410800070026200e00f5200f1ff3a006a
:103f54001e029000040078000080fa0000000600b1
:103f64000600fa00404798000002eb00040f7800b6
:103f74000002eb00140798004e429000e04f5200fc
:103f8400030032004e429000e14f520012003a000a
:103f940006a2a8000682a8000b0037001e0fe80046
:103fa400345480009e027800848f5200060036004c
:103fb4000400280014079800245480000402e80038
:103fc400245488000400370034108000700262001a
:103fd400e00f5200f1ff3a001e0290000400780046
:103fe4000080fa00000006001001900090007800a4
:103ff400010051000000e900f000b20000000600da
:10400400100190009000780002805000f000b2008f
:10401400000006001170a6001a003700e4014000f9
:104024009309e800900190001001e800f200b2004a
:104034000310e10010003200100178006a11b8008a
:10404400e8014000828141006e815000921978009d
:1040540066014100b2197800b2197800b2197800eb
:10406400b21978001001e800f200b20002087800ea
:10407400e60140009309e900e60140009309e800e5
:104084001170a100000006001170a600090037009d
:104094006e815000121878006601410032187800d1
:1040a4003218780032187800321878001170a100a4
:1040b40008003700827f21000218780002002000e7
:1040c40002187800021878000218780002187800a4
:1040d4003100370000000600e40140009309e800c5
:1040e400900190001001e800f200b2000310e1001a
:1040f4000e003200100178006a11b800e801400097
:1041040082814100b1197800b1197800b1197800a1
:10411400b1197800b11978001001e800f200b2007a
:1041240002087800e60140009309e900e601400036
:104134009309e80000000600100190009001780047
:104144000310e10008003a00837f210083187800ff
:1041540003002000831878008318780083187800ff
:10416400831878000c0037006a11b8006801410018
:1041740000014100b2187800b2187800b218780033
:10418400b2187800b2187800100190000201e8001b
:10419400f200b20012009800000006001130a700df
:1041a4001300370010019000900178000310e10023
:1041b4000f0032006a11b80068014100000141009b
:1041c400ee815000b2097800e6814100b21978000e
:1041d400b2197800b2197800b21978001130a00031
:1041e400100190000201e800f200b20012009800f1
:1041f400000006001130a1006e81500030097800e3
:1042040066014100301978003019780030197800bf
:10421400301978001130a000000006000018eb00ef
:104224000018eb000018eb000008eb00000006008b
:104234000400fa00100798001e029000c4029000c7
:10424400050f7800b44d80000402e800b44d8800e6
:104254000080fa00000006000000fa00444c8000d0
:104264004922de00614262000482fb00e74f8000c5
:10427400c64e80004553800087017800060178000f
:1042840085007800c00220002cf207000080fa00ac
:10429400000006000000fa00f4518000065280007d
:1042a4004552800086017800050178008000eb000b
:1042b400d002200021f207000080fa00000006006e
:1042c4000000fa00a4a4200014027800a5a4200091
:1042d4008582e80095037800e5a4200015037800a2
:1042e400e5a420008582e800950278008701780023
:1042f4000601780085007800e00220000ff2070034
:104304000080fa00000006000000fa0024a5200046
:104314001402780025a520008582e8009503780022
:1043240025a52000e48242001503780025a520007d
:10433400e682420095027800870178000601780041
:1043440085007800f0022000fcf107000080fa00ec
:10435400000006000200e00005003b0002004000ef
:104364000800310000002000882aec000500370016
:104374000200400003003900f0ff2f00882aec00ff
:10438400000037000101b8006218b8000100e00025
:1043940002003200f0ff2f00882aec00cf10de006c
:1043a40001007000000006000200e00005003b0070
:1043b4000200400008003100000020008a2aec00be
:1043c400050037000200400003003900f0ff2f0011
:1043d4008a2aec00000037000101b8007018b80008
:1043e4000100e00002003200f0ff2f008a2aec00f6
:1043f400cc10de0001007000000006007010e10027
:1044040001003500f20020000000e00001003a0045
:1044140001007800130020008219dd008301e90007
:10442400001ab800048240000580b0000222de00b9
:1044340070011100822add00050072000008e1000d
:1044440003003200010035000080e8000000e900ac
:04445400000006005e
:020000040000fa
:10445800840a000004000000000000007e0a00003a
:104468000600000000000000880a000004000000a8
:1044780000000000cc090000b200000000000000ad
:104488008c0a000004000000000000000008000082
:0c449800cc01000000000000000000004b
:020000040000fa
:1044a400f03fb1000180b10006003500ee030900c1
:1044b40000000000403fb1000180b100fbff3d005f
:1044c4001000b000203fb000020035000080090059
:0844d4000000000000000600da
:020000040000fa
:0200000401f009
:04000000ecbb000055
:020000040000fa
:0200000401f009
:04000400f7ff000002
:020000040000fa
:0200000401f009
:040008004fff0000a6
:020000040000fa
:0200000401f009
:04000c00ffff0000f2
:020000040000fa
:0200000401f009
:04001000ffff0000ee
:020000040000fa
:0200000401f009
:04001400ffff0000ea
:020000040000fa
:0200000401f009
:04001800ffff0000e6
:00000001FF
