:020000040000fa
:080000000001040000000000f3
:020000040000fa
:100008009a0100009a0100009a0100009a0100007c
:100018009a0100009a0100009a0100009a0100006c
:100028009a0100009a0100009a0100009a0100005c
:100038009a0100009a0100009a0100009a0100004c
:100048009a0100009a0100009a0100009a0100003c
:100058009a0100009a0100009a0100009a0100002c
:10006800b01100009a0100009a0100009a010000f6
:100078009a0100009a0100009a0100009a0100000c
:100088009a0100009a0100009a010000ee080000a1
:100098009a0100009a0100009a0100009a010000ec
:1000a8009a0100009a0100009a0100009a010000dc
:1000b8001e1200009a0100009a0100009a01000037
:1000c8009a0100009a0100009a0100009a010000bc
:1000d8009a0100009a0100009a0100009a010000ac
:1000e8009a0100009a0100009a0100009a0100009c
:0800f8009a0100009a010000ca
:020000040000fa
:100108009a0100009a0100009a0100009a0100007b
:100118009a0100009a0100009a0100009a0100006b
:100128009a0100009a0100009a0100009a0100005b
:100138009a0100009a0100009a0100009a0100004b
:100148009a0100009a0100009a0100009a0100003b
:100158009a0100009a0100009a0100009a0100002b
:10016800b01100009a0100009a0100009a010000f5
:100178009a0100009a0100009a0100009a0100000b
:100188009a0100009a0100009a010000ee080000a0
:100198009a0100009a0100009a0100009a010000eb
:1001a8009a0100009a0100009a0100009a010000db
:1001b8001e1200009a0100009a0100009a01000036
:1001c8009a0100009a0100009a0100009a010000bb
:1001d8009a0100009a0100009a0100009a010000ab
:1001e8009a0100009a0100009a0100009a0100009b
:0801f8009a0100009a010000c9
:020000040000fa
:100200000fa820000e7f22000e01880000000000d1
:10021000000020000000e000020032000001200089
:10022000200288000c000700a0da21000100200055
:1002300011000700000020000000e0000200320072
:100240000000020000000000420e0200000000005a
:100250000040da000000fe004440a9000000200039
:100260000000e0000300320000002000a001880030
:100270004440a8000000060091018800800078003a
:100280000000eb0015003700e280400032a0b4000f
:100290009101ba00e280400032a0b4009102ba009d
:1002a000e280400032a0b4000002eb00472bde00e9
:1002b000f507b200602ce10004003a000059eb00a1
:1002c0008301e900fdff3e00040037006128e100e2
:1002d000010032000082eb00040007001101ba00a7
:1002e0000200e000e8ff3a00000006003159ba00c1
:1002f0008301e9000c0032002159ba008301e900b2
:10030000080032000400e00003003a00e2804000f0
:1003100032a0b400f5ff370011d9ba008301e9001b
:10032000faff3a008100e800e180400032a0b4000a
:10033000000006000040da000000fe00140020006b
:10034000120037006011b8002b0037006022b8009f
:10035000060220000000d0008180d2000482d2007a
:100360008582d2000000a0000202520083825a005f
:10037000030031000202420083824a000000a10013
:100380000603e900f3ff3a0000000600889fbe0064
:100390008a9fbe00841f78006c0007004f00780021
:1003a00011003300f0ff2f00838f6c0006003b002c
:1003b000040565000a00a7000800370009f0a60040
:1003c0001000200008003700820f5400838f5c006b
:1003d000030039001000200001003e000000200052
:1003e00009f0a7000000ea004f05be004f04be0060
:1003f0000000e00000000600889fbe008a9fbe004b
:100400000082700004027100048271002600320034
:100410000004be000200be006011b8006b0920009d
:10042000950220000182cf000a0039000541b10089
:100430000082cf00070039000541b1000982cf00da
:10044000040039000541b1000882cf0001003900e5
:100450000541b10005425200120032000a003b0083
:1004600082817100610164008100d1000080d300ad
:100470008984d3000884d3008b05e8000442e80097
:10048000f7ff3a00070037000804440089844c0055
:1004900000004800818048008b05e9000442e90023
:1004a000f9ff3a00030007004f05be004f04be00ed
:1004b0000000060081002000618055000b003d0017
:1004c0000b00200061fe2f000100e1001d00340040
:1004d00082817100610164008904d1000884d30025
:1004e0000000e800faff3a0071002000610064009b
:1004f0000300700002006000090032006104440043
:10050000e0844c000988a500050032008b05e80056
:100510006808e10002003a008904d1000884d30091
:10052000f20f20000258e10005003d00c75ddd002c
:10053000f907b20089807500080078000000060005
:100540000bf827008b007800000005000004be00b7
:10055000060007000003be000405be000200be0046
:1005600002000700844f750000000600c70ade0085
:10057000f107b200f50fb20008003200e1cf4200ef
:10058000020032000170a00024000500810f7000fd
:10059000010032000408050044000500810f7000ce
:1005a00002003a00140005008502e9000000400046
:1005b00081c04800fcff3b000170a0002400050042
:020000040000fa
:1005c0000000fa002e000700a7010700bb0007008b
:1005d0001c000700044e8000d44a8800d54a8000e1
:1005e000d44d800004824200d44a8800d54a80005d
:1005f000e44d800004824200d44a8800d54a80003d
:10060000f44d800004824200d44a8800d54a80001c
:10061000b44d800004824200d44a8800d54a80004c
:10062000a44d800004824200d44a8800d54a80004c
:10063000944d800004824200d44a88000080fa0071
:10064000000006000000fa002504800004082000d5
:1006500004826200e00f52000700320084e0a9002b
:10066000044e80000402e800044e8800044e80001e
:10067000a45388008629a8000080fa000000060024
:100680000a00fa002c0037008e007800008020005d
:10069000640c07009e027800840720000482620038
:1006a000f00f520004003200b44d80000402e80054
:1006b000b44d8800200037009e02780004492100d4
:1006c000848f520003003a000e0078008a00070071
:1006d000190037009e02780004592100848f5200cf
:1006e00003003a000e0078003f00070012003700b8
:1006f0009e02780004612100848f520003003a00ba
:100700000e007800b60007000b0037009e0278004c
:10071000c4c721008482620004012100848f52003a
:1007200005003a000e0078002f000700944d80006d
:100730000402e800944d880000802000eb0b0700c5
:1007400000027800e00f5200cfff3a0074458000ad
:10075000d44d880034408000e44d88000080fa00c9
:10076000000006000400fa00000f7800110798004e
:100770001e027800940278001e02900004037800a4
:1007800005037300860278001e027800050a7800cf
:100790000080fa00000006000400fa00000f780054
:1007a000110798001e027800940278001e02900043
:1007b0000482ea00848262001e027800050a780042
:1007c0000080fa00000006000400fa00000f780024
:1007d000110798001e0290001e02620004007800bb
:1007e0000080fa00000006000400fa0010079800dc
:1007f0001e029000c4029000050f780004002f0034
:100800009e02620004002200848f52000400320025
:10081000a44d80000402e800a44d880025003700a4
:10082000f4ff20009e026200f40f2000848f52002b
:1008300004003e00a44d80000402e800a44d88009e
:100840001c003700f4ff20009e026200f42f2000fd
:10085000848f520003003e001e0090002f0c070002
:1008600014003700f4ff20009e026200f43f2000d5
:10087000848f520004003e00a44d80000402e80072
:10088000a44d88000b003700f4ff20009e02620098
:10089000f44f2000848f520003003e001e009000a1
:1008a0008400070003003700a44d80000402e80024
:1008b000a44d88000080fa00000006000000fa0045
:1008c000544e8000e00f520005003a00344c800086
:1008d00061026200e00f5200010032007d0007005b
:1008e000344c8000614262000482fb00544e880058
:1008f0000080fa00000006000400fa0010079800cb
:100900001e029000c4029000050f780004002f0022
:100910009e02620004002200848f52000400320014
:10092000a44d80000402e800a44d880013003700a5
:10093000f4ff20009e026200f4072000848f520022
:1009400003003e001e0090000e0007000b00370061
:10095000f4ff20009e026200f40f2000848f5200fa
:1009600003003e001e009000f60b07000300370056
:10097000a44d80000402e800a44d88000080fa0025
:10098000000006000400fa00100798001e02900004
:10099000c4029000050f7800f4ff20001e0f6200d3
:1009a0001e027800e10f520003003200e30f5200f4
:1009b00008003200020037000000fe000600370089
:1009c000a44d80000402e800a44d8800000000004f
:1009d00001003700000000000080fa00000006005f
:1009e0000400fa00100798001e029000c402900054
:1009f000050f780004002f009e0262000400220010
:100a0000848f520004003200a44d80000402e800ec
:100a1000a44d880025003700f4ff20009e026200ec
:100a2000f40f2000848f520004003e00a44d80008b
:100a30000402e800a44d88001c003700f4ff2000e9
:100a40009e026200f42f2000848f520003003e00bb
:100a50001e009000c50b070014003700f4ff2000b3
:100a60009e026200f43f2000848f520004003e008a
:100a7000a44d80000402e800a44d88000b0037005c
:100a8000f4ff20009e026200f44f2000848f520089
:100a900003003e001e0090000a000700030037001c
:100aa000a44d80000402e800a44d88000080fa00f4
:100ab000000006000200fa00000f78000080fa0033
:100ac000000006000200fa00000f78000080fa0023
:100ad000000006000a00fa0044812a00040f780092
:100ae000649820001402780014079800849820006d
:100af0001402780024079800040a2a00340798009a
:100b0000040b2b0044079800e13520000e0078000c
:100b1000730b0700344d80000402e800344d880058
:100b20000080fa00000006000200fa00000f7800c2
:100b3000249c20009e02780095029000050a78000f
:100b40001e027800a4029000249c20001502980048
:100b50001e027800b4029000249c20002502980018
:100b60001e027800c4029000249c200035029800e8
:100b70000060fe008629a9000002eb0054088800ee
:100b80000080fa00000006001400fa0050079800e8
:100b90006107980072079800030f9800140f9800df
:100ba0005e0290006f02620054079800de0290001f
:100bb0000402200005027200540798005e029000b3
:100bc0000402420054079800de02900004602000f6
:100bd00005027200540798005e0290004222dd0078
:100be000540798005e029000040f78009e0278007f
:100bf00004f02f0004826200040f78001e027800c7
:100c00004322dd00040f78009e0278005e0390000e
:100c1000f40f20000402630005027200040f780044
:100c20001e0a9000140798000e0a900024079800ee
:100c30007e029000340798006e02900044079800ee
:100c40008e007800808a2000de0a0700741b800076
:100c500068026200e00f520001003a008760a800bd
:100c60000080fa00000006000000fa002504800061
:100c70000404200004826200e00f52009f00320052
:100c800084c0a900644e80000402e800644e88001d
:100c9000644e80006f026200644e88008dff070082
:100ca000644e800005002000f600200007002000b0
:100cb000860f5200878f5a0090003e0004600100aa
:100cc0000f003700180037002000370029003700d8
:100cd000320037003b003700440037004d0037003a
:100ce000560037005f00370068003700710037009a
:100cf0007a0037007b0037007c0037007d0037002a
:100d0000e44a8000d74a8000c64a8000b54a800085
:100d10008701780006017800850078000000eb006c
:100d200099ff070075003700064b8000f54a8000e8
:100d30000002eb008001eb000601780085007800de
:100d40001000200090ff07006c003700644b80000b
:100d5000574b8000464b8000354b80008701780060
:100d600006017800850078002000200086ff07003b
:100d700062003700a44b8000974b8000864b8000b8
:100d8000754b8000870178000601780085007800a7
:100d9000300020007cff070058003700e44b800043
:100da000d74b8000c64b8000b54b80008701780090
:100db00006017800850078004000200072ff0700df
:100dc0004e003700244c8000174c8000064c8000f9
:100dd000f54b8000870178000601780085007800d7
:100de0005000200068ff070044003700444d800099
:100df000374d8000264d8000154d8000870178001a
:100e00000601780085007800800020005eff070062
:100e10003a003700844d8000774d8000664d800099
:100e2000554d800087017800060178008500780024
:100e30009000200054ff070030003700c44d8000b0
:100e4000b74d8000a64d8000954d80008701780049
:100e50000601780085007800a00020004aff070006
:100e600026003700044e8000f74d8000e64d8000dc
:100e7000d54d800087017800060178008500780054
:100e8000b000200040ff07001c003700c44c800069
:100e9000b74c8000a64c8000954c800087017800fc
:100ea00006017800850078006000200036ff07000a
:100eb00012003700044d8000f74c8000e64c8000a3
:100ec000d54c800087017800060178008500780005
:100ed000700020002cff070008003700b40a07004c
:100ee00006003700c10a070004003700ca0a0700dd
:100ef00002003700da0a0700000000000080fa0054
:100f0000000006000e00fa005007980061079800e4
:100f10000002eb00040f78006e0290002407980096
:100f20005e02900014079800e13420000e00780063
:100f30006b0a0700444d80000402e800444d88001d
:100f40000080fa00000006001000fa005007980028
:100f5000610798007207980044012a00040f780086
:100f60007e029000140798005e029000240798000b
:100f70006e029000e10f520003003a0004102e00b0
:100f8000440798000200370014102e004407980010
:100f9000e13420000e007800510a0700444d800023
:100fa0000402e800444d88000080fa0000000600ba
:100fb0000000fa00043a800061026200e00f520073
:100fc00004003a00043a800062026200e00f52001e
:100fd000050032000002eb00945388000002eb0091
:100fe000a453880003003700945380000402e800f3
:100ff00094538800249c20008002eb00050a7800ae
:10100000249c20001500200015029800249c20003c
:101010002500200025029800249c20003500200097
:10102000350298004007a9004027a90040c7a90041
:1010300040e7a90041e7a9004087a90041c7a900ee
:1010400094538000f44a8800a4538000044e880022
:101050008f60a9008760a9000405800004c0a1007a
:1010600004d0a10004e0a000040588000002eb0009
:10107000b41c88009803a8009823a8009843a800ef
:1010800098a3a800008020001f0a0700808a200083
:101090001d0a070004402000841c88000000000096
:1010a000851c8000040e2000848262000408200059
:1010b000848f5200faff3a0014002000941c88002c
:1010c00014392000a41c8800148021008419880091
:1010d000d4872100c41988000002eb00041888009e
:1010e000048020004418880004012100841888002e
:1010f000c47f2100c4188800c47f2100041988001f
:10110000c47f21004419880014002000741b88004b
:1011100024002000f41a880034002000741a88008b
:10112000040c2000241b8800040c2000a41a880052
:10113000040c2000241a88000002eb00741c8800b4
:101140000002eb00f41b88000002eb00841c880006
:1011500000000000851c8000040e20000482620054
:10116000e00f5200fbff3a008f60a80054fb2500ff
:101170008408880024f42000640888000002eb0042
:101180003408880084c0a9008cc0a90011e1a8001f
:10119000d4fb25009408880054622200740888005b
:1011a00084e0a9008ce0a90013e1a8000002eb0094
:1011b000944c880064ee2800a44c88000002eb00e8
:1011c000b44c880014042000c44c8800440620005d
:1011d000d44c88000080fa00000006003600f800b9
:1011e000809fbe00829fbe00849fbe00869fbe007f
:1011f0000a00fa008760a900844d80000402e8001c
:10120000844d8800751c8000040820000482620060
:10121000e00f520018003200741c8000610262006e
:10122000e00f52000b003a00544d80000402e80029
:10123000544d8800e13820000e0078004d09070069
:101240003e029000844a88004e029000944a880032
:1012500008003700644d80000402e800644d8800f7
:10126000e13820000e007800420907000e007800e7
:101270002dfe07009603a900f51b8000040820003e
:1012800004826200e00f520007003200744d8000bb
:101290000402e800744d8800e1372000008020003f
:1012a000170907009623a900741b800068026200da
:1012b000e00f52000c003a00808a20000b09070062
:1012c00000027800e00f520007003200e1362000f3
:1012d000808a20006c0907009643a900c44d800055
:1012e0000402e800c44d8800b51c80000402200000
:1012f00004826200e00f520005003200244d80009d
:101300000402e800244d880096a3a90008003700d5
:10131000451780000400220004826200e00f5200a2
:1013200002003200e9a2a90001003700e9a2a800ea
:10133000d41c8000144d88000080fa004f03be00ca
:101340004f02be004f01be004f00be003600f90044
:10135000004006000e00fa00000f780021479800b8
:1013600032479800230798003407980045079800f3
:1013700056079800670798001e027800ae4290005a
:10138000054a78001e027800be429000154298007f
:101390001e027800ae029000150298001e0278002e
:1013a000144090006033b8003e029000ce029000de
:1013b0005e019000ee01900001022b004f07070034
:1013c0000080fa00000006000e00fa0040079800b6
:1013d00051079800620798004e0290001402900096
:1013e0008402d1005e029000848f520053003600c8
:1013f0006e0290004822de00044f78006e029000da
:10140000144798005e0290000402420014079800fe
:101410001e0290004822de00444798001e02900001
:10142000544798004e029000144290000440780007
:101430007007070000027800340798004e02900001
:1014400014429000044078008b07070000027800e7
:10145000be02900005027200340798004e02900010
:10146000944290004e02900014427800854078002b
:1014700004407800c207070000027800be02900016
:1014800005027200340798004e029000144290004a
:10149000844078004e409000b907070000027800b1
:1014a000be02900005027200340798004e029000c0
:1014b00014429000844078005e409000b00707001e
:1014c00000027800be029000050272003407980006
:1014d0004e02900014429000844078001e4090001c
:1014e000a707070000027800be0290000502720004
:1014f000340798004e029000144290008440780017
:101500001e4078009e07070000027800be0290008f
:1015100005027200340798004e02900014429000b9
:10152000044078000608070000027800be02900020
:101530000502720034079800020037000082eb00b9
:10154000340798000080fa00000006000c00fa0042
:1015500040079800510798004e0290001402900036
:101560008402d1005e029000848f52006c0036002d
:101570005e02900004024200140798001e029000d0
:101580004822de00444798001e029000544798000d
:101590004e029000144290000440780015070700a6
:1015a00000027800340798004e0290001442900028
:1015b000044078003007070000027800be02900067
:1015c00005027200340798004e0290009442900089
:1015d0004e02900014427800854078000440780064
:1015e0006707070000027800be0290000502720043
:1015f000340798004e029000144290008440780016
:101600004e4090005e07070000027800be02900086
:1016100005027200340798004e02900014429000b8
:10162000844078005e409000550707000002780073
:10163000be02900005027200340798004e0290002e
:1016400014429000044078002c0707000002780044
:10165000be02900005027200340798004e0290000e
:10166000944290004e029000144278000404a000be
:1016700085407800044078004107070000027800a8
:10168000be02900005027200340798004e029000de
:1016900014429000044078007007070000027800b0
:1016a000044f78004e0290001442900004407800ed
:1016b000c407070000027800be0290000502720015
:1016c000340798004e0290001442900004407800c5
:1016d0006207070000027800144798004e0290004d
:1016e0001442900004407800d807070000027800f8
:1016f000be02900005027200340798004e0290006e
:1017000014429000044078008d0707000002780022
:10171000be029000050272003407980006003700f0
:101720000082eb00340798000042eb00044f780081
:101730000042eb00144798001e4290000482fb0018
:10174000140798001e0290004822dd00140798003c
:101750009e4278000582fb009e02900004824200b7
:10176000140798001e029000040078000080fa0020
:10177000000006001200fa00500798006107980068
:1017800072079800030f98007e029000e00f52004d
:10179000640032007e029000f00f5200020036001a
:1017a00004012000740798005e029000140290006b
:1017b000c522de006e029000848f52005700360072
:1017c0006e0290004522dd00240798002e02900052
:1017d0004822de00644798002e029000744798006b
:1017e0005e029000144290000440780081060700d9
:1017f00000027800040f78005e029000144290000e
:10180000044078009c060700000278001e0f72005a
:101810005e029000944290005e02900014427800b4
:101820008540780004407800d50607000002780063
:101830001e0f72005e0290001442900084407800f7
:101840006e409000ce060700000278001e0f720066
:101850005e02900014429000844078007e40900028
:10186000c7060700000278001e0f72000002eb009e
:10187000140798001e0037001e0290000402420068
:101880008e0a900004824200140278004822de0092
:10189000044f98001e029000040242008e0a90003d
:1018a0000482420014027800144f98005e029000f7
:1018b00014429000844078001e489000b006070053
:1018c000000278001e0f72005e0290001442900029
:1018d000844078000e489000a906070000027800b6
:1018e0001e0f72001e0290000402e8001407980008
:1018f0009e0290007e029000848f5200deff39002d
:101900005e02900014429000044078000c0707002b
:10191000000278001e0f7200020037000082eb0008
:10192000040f78000080fa00000006001200fa00a0
:10193000500798006107980072079800030f9800fd
:101940007e029000e00f5200cc0032007e02900038
:10195000f00f5200020036000401200074079800c6
:101960005e02900014029000c522de006e0290001c
:10197000848f5200bb0036006e0290004522dd00cd
:10198000240798002e0290004822de006447980049
:101990002e029000744798005e029000144290005e
:1019a000044078001306070000027800040f780056
:1019b0005e02900014429000044078002e0607005a
:1019c000000278001e0f72005e02900094429000a8
:1019d0005e02900014427800854078000440780050
:1019e00067060700000278001e0f72005e0290007a
:1019f00014429000844078006e409000600607001a
:101a0000000278001e0f72005e02900014429000e7
:101a1000844078007e40900059060700000278005c
:101a20001e0f72005e029000144290000440780085
:101a300032060700000278001e0f72005e0290005e
:101a4000944290005e029000144278000404a000ca
:101a500085407800044078004906070000027800bd
:101a60001e0f72000002eb00140798003a003700c6
:101a70005e02900014429000044078007706070050
:101a800000027800044f98005e029000144290001b
:101a900004407800cb060700000278001e0f720099
:101aa0005e02900014429000044078006b0607002c
:101ab00000027800144f98005e02900014429000db
:101ac00004407800bf060700000278001e0f720075
:101ad0001e029000040242008e0a9000848242009e
:101ae0001e4a90000482fb00840a78001e029000c7
:101af000040242008e0a9000848242001e0290007e
:101b0000040242000e0b900004024300140278000d
:101b10004822dd00840a78001e0290000402420080
:101b20008e0a9000848242001e029000040242004d
:101b30000e0b900004024300140378000e4a90003c
:101b40000482fb0004024300840a78001e02900015
:101b50000402e800140798007e0290008402e90065
:101b60001e029000848f5200c1ff3e005e02900072
:101b70001442900004407800380607000002780004
:101b8000044f98005e0290001442900004407800d8
:101b90008c060700000278001e0f72005e029000a3
:101ba00014429000044078002c06070000027800e0
:101bb000144f98005e029000144290000440780098
:101bc000a2060700000278001e0f72001e0290009d
:101bd000040242008e0a9000848242001e4a900055
:101be0000482fb00840a78001e0290000402420076
:101bf0008e0a9000848242001e029000040242007d
:101c00000e0b900004024300140278004822dd000d
:101c1000840a78001e029000040242008e0a90009e
:101c2000848242001e029000040242000e0b9000cb
:101c300004024300140378000e4a90000482fb0063
:101c400004024300840a78005e029000144290006f
:101c5000044078003a060700000278001e0f720068
:101c6000060037000082eb00040f78000042eb0012
:101c7000044f98000042eb00144f98000080fa00d7
:101c8000000006000000fa00a4002000f4518800c3
:101c900001000700feff37000000fa00f451800049
:101ca000f40f520012003200f40f520003003e0005
:101cb000ea0f5200080032004300370025032000dd
:101cc000850f520018003200c5032000850f520016
:101cd0002a0032003c003700700007008649a90046
:101ce0008609a80044012000f4518800390037001b
:101cf0008609a800080037003800070046000700e2
:101d000035538000f4182000848f52000200360002
:101d100024032000f4518800f4518000f40f520095
:101d2000f5ff32002b003700849820008002eb0082
:101d3000050a78008609a9000b0037002700070074
:101d400004538000e00f5200010032000a01070036
:101d50008498200014027800e00f52000200320044
:101d6000c4032000f4518800f551800024032000b2
:101d7000848f5200f1ff3200160037008609a80058
:101d80000c0037001500070004538000e00f5200dc
:101d900001003200f8000700249c200014027800a3
:101da00061026200e00f52000200320024032000b2
:101db000f4518800f5518000c4032000848f520044
:101dc000f0ff320003003700c4032000f451880004
:101dd000000000000080fa00000006000000fa0089
:101de000f7f90700f4518000f40f520003003a00a5
:101df000345380000402e80034538800344c8000df
:101e000062026200e00f5200010032008869a800ff
:101e10000080fa00000006000000fa003453800041
:101e20004422de006302620005002000360020002c
:101e300007002000860f5200878f5a0015003e00d1
:101e40000460010003003700060037000900370076
:101e50000c003700c4e2a800e982a800e9a2a800ab
:101e60000c003700c4e2a900e982a800e9a2a8009a
:101e700008003700c4e2a900e982a900e9a2a8008d
:101e800004003700c4e2a900e982a900e9a2a90080
:101e9000000000000080fa00000006000000fa00c8
:101ea000849820008002eb00050a780064982000e6
:101eb0008002eb00050a78000002eb00544c880019
:101ec0000002eb00644c88000002eb00f44c880038
:101ed0000002eb00e44c88000002eb00044d880097
:101ee000e40480000400a0000410a0000420a0006e
:101ef000e40488008220a900e40480000400a1001a
:101f00000410a0000420a000e40488008220a9009e
:101f1000046025000416880074f02200341688003e
:101f20000002eb00641688000002eb0094168800a3
:101f300034002000f4168800c41c240024178800f4
:101f40000002eb00a408880086a0a900d4f92d00a7
:101f5000f4088800440d2300e40888000002eb0028
:101f6000c408880086c0a900d4f92d00040988009f
:101f700006a82100670020000468290085092000c8
:101f8000030022000041eb0001cab30080a620003c
:101f9000f0fc070006fc0700f4ff2700841f780010
:101fa0008083eb00060028008002eb000082eb003b
:101fb00080c1eb000001eb0031402000e09c2000dc
:101fc0002e0107008f87e900f4ff2700841f7800a7
:101fd0008083eb00060028008002eb000082eb000b
:101fe00080c1eb000001eb0031402000209f200069
:101ff000220107008f87e900f4ff2700841f780083
:102000008083eb0006002800052c210004452100f8
:1020100080c1eb000001eb000120200060a1200046
:10202000160107008f87e90006682900870920004c
:1020300004482800e501200003002a000001eb000d
:10204000f153200020c0b300b002070074ff2d0040
:1020500044158800f4cf2f0004158800c4bf260063
:102060001415880074f62f0024158800d4de2e0085
:10207000341588008560a900a1e2a80000000000d6
:10208000250480000480200004826200e00f5200da
:10209000fbff3200a1e2a9000514800014148000a7
:1020a0008482420024148000848242003414800020
:1020b00084824200441480008482420054148000d0
:1020c0008482420064148000848242007414800080
:1020d00004824200d4508800d550800086148000cd
:1020e0009414800004034300a414800004034300fc
:1020f000b414800004034300c414800004034300ac
:10210000d414800004034300e4148000040343005b
:10211000f41480000402430004824200d45088007a
:1021200060a120008a01070060a12000c70107000c
:1021300000027800e00f5200040032008669a80017
:10214000110020000096200086f9070060a1200001
:10215000cc01070000027800e00f520004003200ba
:102160008669a80021002000009620007df9070064
:102170000080fa00000006000000fa0000192000ac
:102180000100200086060700d082a90021c0b3000c
:102190000000eb00280307000002be0004027800e4
:1021a000b44f8800d082a800d042a8000414800058
:1021b000944e88008729a900a516800004102000ed
:1021c00004826200e00f520005003a00a51680006c
:1021d0000480200004826200e00f520001003a00f7
:1021e0008729a800354c800004202000048262006a
:1021f000e00f52001300320034528000455280003c
:1022000061024200e0824a00345288004552880050
:10221000045280000402e8000452880094528000b6
:102220000402e80094528800a45280000402e800ee
:10223000a4528800b45280000402e800b45288001e
:1022400006003700b4528000e00f52000300320055
:10225000b45280000402e900b4528800a4a4200013
:102260003400be002401be00140020000500200040
:102270006033b8000002420081824a0002034b0032
:1022800083834b00a0a420000498be000690be00eb
:10229000145280002552800061024200e0824a0010
:1022a0001452880025528800c45280000402e800bd
:1022b000c4528800c4528000f00f5200080036005b
:1022c0000002eb00c452880094528000e00f5200dc
:1022d00003003200945280000402e9009452880006
:1022e000d45280000402e800d4528800c552800015
:1022f000040f2000848f5200080036000002eb001b
:10230000d4528800a4528000e00f52000300320033
:10231000a45280000402e900a4528800a552800063
:1023200034062000848f5200010036008809a8007e
:102330009552800014032000848f52000100360063
:102340008829a800b4528000ee0f52000100360028
:102350008849a800960507000080fa0000000600e2
:1023600000a0fe003600f800849fbe00869fbe00dd
:10237000881f78000000fa00000000000000000044
:102380000000000000000000a022a900d042a90027
:10239000344c80004822de00614262000482fb006f
:1023a000f4528800944a8000e4528800140020000f
:1023b00004538800a4088000050020000400be002b
:1023c000e0f707000002be0018c0b30002002e00b4
:1023d000b35224000400be00d8f7070000027800c2
:1023e000e00f5200010035000044eb00e04f5400c4
:1023f00008003200350480000402200004826200dc
:10240000e00f520003003a00145380000402e80079
:102410001453880086a0a9000002eb00a4088800dd
:102420000080fa004f0478004f03be004f02be0048
:102430003600f9000080fe0000400600849fbe00c8
:102440000000fa00350480000402200004826200cb
:10245000e00f520003003a00a4088000f40f52007d
:1024600003003600245380000402e800245388004f
:102470000080fa004f02be00004006001200fa0081
:10248000100798002107980032079800034f980022
:10249000540798006507980076079800070f980082
:1024a0000002eb00040f78001e0390006022b800c9
:1024b000048bbe001e0290008002eb0025029800f3
:1024c0001e0290008002eb00350298001e02900070
:1024d000ae029000450298001e029000be029000dd
:1024e000550298000e4a9000e14f42000d003a005c
:1024f0001e02900005002800650298001e02900050
:102500008002eb00750298001e0290000500280072
:10251000050a98001e0290008002eb00150a980040
:102520000c0037001e02900005002800650298008c
:102530001e0290008002eb00750298001e029000bf
:1025400005002800050a98001e0290008002eb009a
:10255000150a98001e029000de029000250a9800dd
:102560001e029000ee029000350a98001e029000b4
:10257000fe029000550a98001e0290008e0a9000fc
:10258000650a98001e0290008002eb00750a980010
:102590001e0290008002eb00051298001e029000bf
:1025a000ceba9700151298000080fa0000000600cd
:1025b0001000fa00100798002107980032079800d1
:1025c000034f980054079800650798007607980015
:1025d0000002eb00040f78001e0290008002eb0066
:1025e000250298001e029000de029000350298003d
:1025f0001e029000ee029000450298001e0290001c
:10260000fe029000550298001e029000ae0290005b
:10261000650298001e029000be02900075029800ac
:102620000e4a9000e14f42000d003a001e02900059
:1026300005002800050a98001e0290008002eb00a9
:10264000150a98001e02900005002800250a98002f
:102650001e0290008002eb00350a98000c00370043
:102660001e02900005002800050a98001e02900036
:102670008002eb00150a98001e0290000500280059
:10268000250a98001e0290008002eb00350a98008f
:102690000080fa00000006000400fa00100798000d
:1026a0001e029000740390001e029000e40290004d
:1026b0001e02900014027800060178008500780060
:1026c000040078000e05070000027800040f78006f
:1026d0001e029000940a90001e029000040a9000ce
:1026e00005017800840078001e007800ef040700e0
:1026f00000027800040f78001e029000b40a9000d7
:102700001e029000240a90000501780084007800e1
:102710001e007800e504070000027800040f78002e
:102720001e02900024029000e00f520003003a00c5
:102730001e029000d4029000050f78001e02900047
:102740009e027800150298000080fa000000060042
:102750000400fa00100798001e029000140b90006d
:102760001e029000840a90001e0290002402900035
:10277000060178008500780004007800cb0407008b
:1027800000027800040f78001e029000f40290000e
:102790001e02900064029000050178008400780019
:1027a0001e007800c104070000027800040f7800c2
:1027b0001e029000d40290001e029000440290007d
:1027c00005017800840078001e007800cc04070022
:1027d00000027800040f78001e0290009e0278002c
:1027e000350298000080fa00000006000400fa009c
:1027f000000f7800110798001e027800b4029000c4
:102800001e029000848f5200030031001e027800e7
:10281000b4029000150798001e027800c4029000d0
:102820001e029000848f5200030036001e027800c2
:10283000c4029000150798001e0278009e029000c6
:10284000050a78000080fa00000006000200fa0085
:10285000000f78001e027800b40290001e0278007b
:10286000240a9000848f52000200360014002000d9
:10287000010037000002eb00040078000080fa003d
:10288000000006000200fa00000f78001e02780027
:10289000b40290001e027800340a9000848f520027
:1028a0000200310014002000010037000002eb009c
:1028b000040078000080fa00000006000400fa001e
:1028c000100798001e029000d40a90001e0290008b
:1028d000440a90000001eb008500780004007800b5
:1028e0007204070000027800040f78001e029000b6
:1028f000640a90009e0f5200030036001e029000f2
:10290000e40a9000050f780004f02f009e025200a8
:102910001e029000440a9000848f5200040036008a
:102920001e029000440a90001e0f42000200370071
:1029300004f02f00040f78001e0290003402900073
:102940009e0f5200060036001e029000740a90008e
:102950008402e8001e029000750a98000900370002
:102960001e029000740a9000e00f52000500320031
:102970001e029000740a90008402e9001e0290007a
:10298000750a98001e029000f40a90001e02900042
:1029900014129000848f52000f0039001e02900024
:1029a000f40a90001e0290001412900004024200eb
:1029b000848f5200060039001e029000141290000d
:1029c00004024200840278001e029000750a9800fa
:1029d00014002000010037000002eb000400780022
:1029e0000080fa00000006000400fa0010079800ba
:1029f0001e029000d40a90001e029000440a90002b
:102a00000001eb008500780004007800270407002f
:102a100000027800040f78001e029000640a900003
:102a20009e0f5200030036001e029000e40a900040
:102a3000050f78001e029000440a90009e0f52007d
:102a4000040036001e029000440a90001e0f52003f
:102a5000020037000002eb00040f78001e02900015
:102a6000340290009e0f5200060031001e029000ba
:102a7000041290008402e8001e02900005129800e3
:102a8000090037001e02900004129000e00f52006f
:102a9000050032001e029000041290008402e9003a
:102aa0001e029000051298001e02900084129000f1
:102ab0001e02900014129000848f52000f00390003
:102ac0001e029000841290001e02900014129000ca
:102ad00004024200848f5200060039001e0290005a
:102ae0001412900004024200840278001e0290003a
:102af0000512980014002000010037000002eb00ce
:102b0000040078000080fa00000006001400fa00bb
:102b100040479800310798004207980053079800f3
:102b20006407980075079800060f9800170f980023
:102b30003e029000f401b300340798000e0b9000a1
:102b40009e0b9000463add00ca32de00850272001c
:102b50004632dd006e019000fe0190000400be00d0
:102b6000faf507000002be00048fbe00042020001a
:102b7000050020001e03be00840f5300858f5b00fc
:102b800003003e0014002000645388003200370028
:102b900034802000050020001e03be00840f530077
:102ba000858f5b000d003e004400200064538800c8
:102bb0001e02be004e2bdd004222de000402730026
:102bc000c22ade00048fbe00be029000e4ff2f0088
:102bd00004826200340798001f003700f4002200ce
:102be000050020001e03be00840f5300858f5b008c
:102bf0000d003e0004012000645388001e02be0048
:102c00004c2bdd004422de0004027300c42ade00e7
:102c1000048fbe00be029000d4ff2f000482620029
:102c2000340798000c003700040420006453880027
:102c30001e02be004a2bdd004622de0004027300a5
:102c4000c62ade00048fbe00be029000c4ff2f0023
:102c50000482620034079800041c20000500200054
:102c60001e03be00840f5300858f5b0008003600f2
:102c7000645380004322dd0064538800be0290004c
:102c800034fe2f000482620034079800570037009a
:102c900004182000050020001e03be00840f53000e
:102ca000858f5b0009003600645380006722b900fd
:102cb0000402780064538800be02900074fe2f0066
:102cc0000482620034079800480037000414200092
:102cd000050020001e03be00840f5300858f5b009b
:102ce00009003600645380006622b90004027800af
:102cf00064538800be029000b4fe2f00048262007c
:102d00003407980039003700041020000500200027
:102d10001e03be00840f5300858f5b000900360040
:102d2000645380006522b90004027800645388006f
:102d3000be029000f4fe2f00048262003407980067
:102d40002a003700040c2000050020001e03be00ee
:102d5000840f5300858f5b000800360064538000a9
:102d60004222dd0064538800be02900034ff2f0031
:102d700004826200340798001c0037000408200019
:102d8000050020001e03be00840f5300858f5b00ea
:102d900009003600645380006322b9000402780001
:102da00064538800be02900074ff2f00048262000a
:102db000340798000d0037000404200005002000af
:102dc0001e03be00840f5300858f5b000700360092
:102dd000645380000402420064538800be029000e5
:102de000b4ff2f000482620034079800645380000f
:102df0004222dd00645388004e429000e14f5200b1
:102e000004003a003e029000141188005e03900016
:102e1000061188004e429000e24f520004003a0032
:102e20003e029000441188005e0390003611880035
:102e30000080fa00000006000c00fa00400798002d
:102e4000214f98000042eb00044f78002e4a90007a
:102e5000e14f520054003a008500a9004e02900054
:102e6000241188000002eb00340798001800370096
:102e70003e0290000402e80034079800645380008a
:102e8000be029000848f52000300360034c0b300ad
:102e9000044f78000e003700051180000404200064
:102ea00004826200e00f52000300320044c0b3000d
:102eb000044f7800060037000411800062026200af
:102ec000e00f520002003a0014c0b300044f780033
:102ed0001e427800e04f5200e5ff3200200037002c
:102ee0003e0290000402e80034079800645380001a
:102ef000be029000848f52000300360034c0b3003d
:102f0000044f7800160037000511800004042000eb
:102f100004826200e00f52000300320044c0b3009c
:102f2000044f78000e0037002504800004102000b4
:102f300004826200e00f52000300320024c0b3009c
:102f4000044f78000600370004118000610262001f
:102f5000e00f52000200320024c0b300044f78009a
:102f60001e427800e14f5200ddff32001e42780021
:102f7000e24f520005003a002411800005002000b5
:102f80001407980025079800070037000400200068
:102f9000151121001407980025079800745380002c
:102fa0000402e800745388002e4a9000e24f520059
:102fb0004d003a008740a9004e029000541188004d
:102fc0000002eb0034079800180037003e02900022
:102fd0000402e8003407980064538000be029000a9
:102fe000848f52000300360034c0b300044f7800d1
:102ff0000e003700351180000404200004826200b6
:10300000e00f52000300320044c0b300044f7800c8
:10301000060037003411800062026200e00f5200a7
:1030200002003a0014c0b300044f78001e4278003a
:10303000e04f5200e5ff3200190037003e029000d9
:103040000402e8003407980064538000be02900038
:10305000848f52000300360034c0b300044f780060
:103060000f00370035118000040420000482620044
:10307000e00f52000300320044c0b300044f780058
:1030800007003700350480000440200004826200fd
:10309000e00f52000200320024c0b300044f780059
:1030a0001e427800e14f5200e4ff32001e427800d9
:1030b000e24f520005003a00541180000500200044
:1030c0001407980025079800070037000400200027
:1030d00015112100140798002507980084538000db
:1030e0000402e800845388001e029000ae029000a3
:1030f0000400be000080fa00000006001400fa0080
:1031000040479800310798004207980053079800fd
:103110006407980075079800060f9800170f98002d
:103120004e019000de0190006e009000fe009000c5
:1031300086f407000002be00048fbe001e02780065
:103140004422dd00c45388006e029000fe0290000d
:1031500052cd2d00230320000400be007bf40700a5
:103160000002be001e1f12001e971a000082eb0014
:103170008082eb001e0f42005e974a001e03be00d5
:103180001400200005002000840f5300858f5b0091
:1031900003003e002400200005002000048fbe0034
:1031a000f4ff2f00050020001e03be00840f530013
:1031b000858f5b00030036002400200005002000fe
:1031c000048fbe004e429000e04f520003003200d8
:1031d0004e429000e14f520004003a00be029000bf
:1031e000351088001e027800241088000080fa0044
:1031f000000006000600fa00404798000002eb00bd
:10320000140798004e429000e04f52000300320035
:103210004e429000e14f520013003a000002eb00d2
:10322000040f78000b0037001e0fe800c453800025
:103230009e027800848f52000600360004a02f0002
:1032400014079800b45380000402e800b4538800c7
:10325000050037004510800004002400048262004d
:10326000e00f5200f0ff3a001e02900004007800c8
:103270000080fa00000006000600fa0040479800af
:103280000002eb00140798004e429000e04f5200fd
:10329000030032004e429000e14f520013003a000a
:1032a0000602a8000002eb00040f78000b003700b4
:1032b0001e0fe800c45380009e027800848f5200e5
:1032c0000600360004a02f0014079800b4538000b5
:1032d0000402e800b4538800040037003410800072
:1032e00061026200e00f5200f1ff3a001e029000fe
:1032f000040078000080fa00000006000600fa00d2
:10330000404798000002eb00140798004e429000de
:10331000e04f5200030032004e429000e14f520055
:1033200013003a000622a8000002eb00040f780008
:103330000b0037001e0fe800c45380009e02780087
:10334000848f52000600360004a02f001407980056
:10335000b45380000402e800b4538800040037002e
:103360003410800062026200e00f5200f1ff3a0068
:103370001e029000040078000080fa0000000600a1
:103380000600fa0040479800514798000002eb0001
:10339000140798005e429000e04f52000300320094
:1033a0005e429000e14f520028003a004e429000e9
:1033b0000482fb00141088000002eb00040f780068
:1033c0000c0037001e0fe800c45380009e027800f6
:1033d000848f52000700360004a02f0014079800c5
:1033e000b45380000402e800b453880000000000d9
:1033f00011003700451080000400240004826200a0
:10340000e00f5200efff32000b0037001e0fe80004
:10341000c45380009e027800848f5200060036005c
:1034200004a02f0014079800b45380000402e800a1
:10343000b4538800050037004510800004002400c4
:1034400004826200e00f5200f0ff3a001e0290007a
:10345000040078000080fa00000006000600fa0070
:10346000404798000002eb00140798004e4290007d
:10347000e04f5200030032004e429000e14f5200f4
:103480002b003a000662a8000002eb00040f78004f
:103490000c0037001e0fe800c45380009e02780025
:1034a000848f52000700360004a02f0014079800f4
:1034b000b45380000402e800b45388000000000008
:1034c000100037003410800068026200e00f5200e4
:1034d000f0ff3a000b0037001e0fe800c4538000d5
:1034e0009e027800848f52000600360004a02f0050
:1034f00014079800b45380000402e800b453880015
:10350000040037004410800062026200e00f5200a5
:10351000f1ff32001e029000e00f520004003a005a
:1035200005108000f40f2000048262001407980048
:103530001e029000040078000080fa0000000600df
:103540000600fa00404798000002eb0014079800bc
:103550004e429000e04f5200030032004e42900075
:10356000e14f520013003a000642a8000002eb00af
:10357000040f78000b0037001e0fe800c4538000d2
:103580009e027800848f52000600360004a02f00af
:1035900014079800b45380000402e800b453880074
:1035a000040037003410800064026200e00f520013
:1035b000f1ff3a001e029000040078000080fa003b
:1035c000000006000600fa00404798000002eb00e9
:1035d000040f78000002eb00140798004e429000a0
:1035e000e04f5200030032004e429000e14f520083
:1035f00012003a0006a2a9000682a8000b003700bc
:103600001e0fe800c45380009e027800848f520091
:103610000600360004a02f0014079800b453800061
:103620000402e800b453880004003700341080001e
:1036300070026200e00f5200f1ff3a001e0290009b
:10364000040078000080fa00000006000600fa007e
:10365000404798000002eb00040f78000002eb00e6
:10366000140798004e429000e04f520003003200d1
:103670004e429000e14f520012003a0006a2a8000c
:103680000682a8000b0037001e0fe800c45380001c
:103690009e027800848f52000600360004a02f009e
:1036a00014079800b45380000402e800b453880063
:1036b000040037003410800070026200e00f5200f6
:1036c000f1ff3a001e029000040078000080fa002a
:1036d00000000600100190009000780001005100e9
:1036e0000000e900f000b2000000060010019000a8
:1036f0009000780002805000f000b2000000060048
:103700001170a6001a003700e40140009309e80098
:10371000900190001001e800f200b2000310e100f7
:1037200010003200100178006a11b800e801400072
:10373000828141006e81500092197800660141003b
:10374000b2197800b2197800b2197800b21978006d
:103750001001e800f200b20002087800e601400023
:103760009309e900e60140009309e8001170a10007
:10377000000006001170a600090037006e8150009d
:10378000121878006601410032187800321878006b
:1037900032187800321878001170a1000800370044
:1037a000827f2100021878000200200002187800b1
:1037b00002187800021878000218780031003700eb
:1037c00000000600e40140009309e8009001900029
:1037d0001001e800f200b2000310e1000e00320018
:1037e000100178006a11b800e801400082814100b0
:1037f000b1197800b1197800b1197800b1197800c1
:10380000b11978001001e800f200b2000208780057
:10381000e60140009309e900e60140009309e80051
:103820000000060010019000900178000310e100f4
:1038300008003a00837f21008318780003002000ed
:10384000831878008318780083187800831878002c
:103850000c0037006a11b800680141000001410006
:10386000b2187800b2187800b2187800b218780050
:10387000b2187800100190000201e800f200b200d6
:1038800012009800000006001130a7001300370056
:1038900010019000900178000310e1000f00320049
:1038a0006a11b8006801410000014100ee8150003a
:1038b000b2097800e6814100b2197800b2197800a7
:1038c000b2197800b21978001130a00010019000f0
:1038d0000201e800f200b2001200980000000600a9
:1038e0001130a1006e81500030097800660141005e
:1038f00030197800301978003019780030197800c4
:103900001130a000000006000018eb000018eb00ca
:103910000018eb000008eb00000006000400fa00ad
:10392000100798001e029000c4029000050f780056
:10393000a44d80000402e800a44d88000080fa0035
:10394000000006000400fa00100798001e02900014
:10395000c4029000050f7800a44d80000402e80026
:10396000a44d88000080fa00000006000400fa0060
:10397000100798001e029000c4029000050f780006
:10398000f4ff20001e0f6200a44d80000402e80036
:10399000a44d88000080fa00000006000000fa0034
:1039a00014002000f45388000080fa000000060094
:1039b0000000fa00344c80004922de0061426200bf
:1039c0000482fb00c74f8000a64e8000e5528000b5
:1039d000870178000601780085007800c002200089
:1039e00069f407000080fa00000006000000fa00f9
:1039f000e4518000d6518000055280008601780095
:103a0000050178008000eb00d00220005ef4070082
:103a10000080fa00000006000000fa0024a4200044
:103a20001402780025a420008582e8009503780020
:103a300065a420001503780065a420008582e800b5
:103a400095027800870178000601780085007800eb
:103a5000e00220004cf407000080fa00000006009d
:103a60000000fa00a4a4200014027800a5a42000fd
:103a70008582e80095037800a5a42000e482420036
:103a800015037800a5a42000e68242009502780084
:103a9000870178000601780085007800f002200098
:103aa00039f407000080fa00000006000200e00080
:103ab00005003b000200400008003100000020002b
:103ac0007a2aec00050037000200400003003900ac
:103ad000f0ff2f007a2aec00000037000101b80047
:103ae0006218b8000100e00002003200f0ff2f0071
:103af0007a2aec00cf10de00010070000000060002
:103b00000200e00005003b00020040000800310018
:103b1000000020007c2aec00050037000200400075
:103b200003003900f0ff2f007c2aec000000370072
:103b30000101b8007018b8000100e0000200320076
:103b4000f0ff2f007c2aec00cc10de00010070009a
:043b5000000006006b
:020000040000fa
:103b540000080000ce010000000000007e0a000002
:103b64000200000000000000760a000004000000cb
:103b7400000000006c0a00000600000000000000c5
:103b84007a0a00000400000000000000ce090000d2
:0c3b94009e000000000000000000000087
:020000040000fa
:103ba000f03fb1000180b10006003500ee030900ce
:103bb00000000000403fb1000180b100fbff3d006c
:103bc0001000b000203fb000020035000080090066
:083bd0000000000000000600e7
:020000040000fa
:0200000401f009
:04000000ecbb000055
:020000040000fa
:0200000401f009
:04000400f7ff000002
:020000040000fa
:0200000401f009
:040008004fff0000a6
:020000040000fa
:0200000401f009
:04000c00ffff0000f2
:020000040000fa
:0200000401f009
:04001000ffff0000ee
:020000040000fa
:0200000401f009
:04001400ffff0000ea
:020000040000fa
:0200000401f009
:04001800ffff0000e6
:00000001FF
